:020000040800F2
:10000000005000207D4E00083D4C0008454C000883
:100010004D4C0008554C00085D4C000800000000E5
:10002000000000000000000000000000654C000817
:10003000714C0008000000007D4C0008894C00084D
:10004000C54E0008C54E0008C54E0008C54E000844
:10005000C54E0008C54E0008C54E0008C54E000834
:10006000C54E0008C54E0008C54E0008C54E000824
:10007000C54E0008C54E0008C54E0008C54E000814
:10008000C54E0008C54E0008C54E0008C54E000804
:10009000C54E0008C54E0008C54E0008C54E0008F4
:1000A000C54E0008C54E0008C54E0008C54E0008E4
:1000B000C54E0008C54E0008C54E0008C54E0008D4
:1000C000C54E0008C54E0008C54E0008C54E0008C4
:1000D000C54E0008C54E0008C54E0008C54E0008B4
:1000E000C54E0008C54E0008C54E000800000000BF
:1000F0000000000000000000000000000000000000
:0C01000000000000000000005FF808F1A3
:100110002DE9F04D002B88B014461D46109E129913
:10012000DDF8508041DB0022B8F1650F0A7039D04C
:1001300040DCB8F1450F35D0B8F1460F5FD103234D
:100140000093139B2246CDE9016307AB049306ABF2
:1001500003932B4601F006F9074628F02003462BAF
:1001600007EB060805D13B78302B3CD0139B1E686B
:10017000B044204629460022002304F05FFB0028FB
:100180003BD1079B984506D930215A1C079219701C
:10019000079B4345F9D33846159ADB1B136008B01B
:1001A000BDE8F08D02230136CAE703F1004B2D2292
:1001B0005D46B9E7B8F1660FC1D0139B2246CDE981
:1001C00001630223009307AB049306AB03932B4612
:1001D00001F0C8F8B8F1670F0746BED1119BDB07E5
:1001E00021D4079BD7E7002200232046294604F0AC
:1001F00025FBD8B1139B1B6898444346CBE7139B60
:100200002246CDE901630223009307AB049306ABBA
:1002100003932B4601F0A6F8B8F1470F07469CD18F
:10022000119BDB07DDD507EB0608A2E7139BC6F1A0
:1002300001061E609CE700BF0029B4BF2D232B23BD
:1002400030B5B8BF4942092983B0027043702CDD34
:100250000DF107042346194D8C461A46A5FB01E310
:10026000DB0803EB830EA1EB4E0101F1300EBCF174
:10027000630F194602F801EC02F1FF33ECDC303178
:1002800003F8011C931EA34200F102050AD2411C8F
:1002900013F801CBA34201F801CFF9D10DF1090305
:1002A0009B1A1D44281A03B030BD3023051D194484
:1002B000C1708370281A03B030BD00BFCDCCCCCC48
:1002C0002DE9F04F91B00C46DDF8688016461F46C8
:1002D000054600F097FE036818460A9300F076FF83
:1002E00000230E93D8F800300B90073323F0070358
:1002F00003F10802D4F800A094F818B0C8F8002060
:10030000D3E9008929F000430993CDF820804FF00C
:10031000FF32DDE90801C4E91289A04B04F0C0FAFC
:1003200040B9DDE908014FF0FF329C4B04F09AFA26
:10033000002877D042464B464046494604F0B0FA82
:10034000002840F03B8263684AF480615A1C0BF03D
:10035000DF0A35D0BAF1470F00F028810093216001
:100360000191002106910EA905910DA903910DF1AE
:10037000330142464B462846CDF810B00291FFF7B4
:10038000C7FE8046BBF1650F0D993AD9BBF1660FE8
:1003900000F02E810E9B8B4240F335810029CCBFAB
:1003A0000122C1F10202134423614FF0000AA1654A
:1003B0009DF83330002B4DD02D2384F8433049E095
:1003C000216001910021062006910EA9CDF810B000
:1003D000606005910DA903910DF133014246009033
:1003E0004B4628460291FFF793FEBAF1470F80462D
:1003F000C8D10D99C81C80F2F480ABF1020B5FFAF2
:100400008BFB5A46013904F150000D91FFF714FFA0
:100410000E9A82461318012A236140F34281013368
:100420002361C5E7404649460022002304F010FA44
:1004300010B12D2384F843302AF0040323600323F2
:10044000574A2361574B4FF0000ABBF1470F8CBF4F
:100450009046984633462146284600970FAA00F05A
:10046000D1F9013023D0236858052BD442463146B8
:1004700028462369B847013019D022689207E068FE
:100480000F9B19D5984217DD4FF0000804F11909A8
:1004900004E0E0680F9BC21A42450DDD01234A4685
:1004A00031462846B847013008F10108F1D14FF034
:1004B000FF3011B0BDE8F08F9842B8BF184611B0B8
:1004C000BDE8F08FBBF1650F33D9D4E912010022EA
:1004D000002304F0B3F9002800F09D800123314689
:1004E0002846314AB8470130E1D0DDE90D3A53459D
:1004F00002DB2268D107C1D5DDE90A23314628464F
:10050000B8470130D3D0BAF1010FB6DD4FF0000883
:100510000AF1FF3A04F11A0901E0D045ADD00123F8
:100520004A4631462846B847013008F10108F4D15F
:10053000BDE7DDF83890B9F1010F40F39D8001234C
:10054000424631462846B8470130B0D0DDE90A239B
:1005500031462846B8470130A9D0D4E9120100221B
:10056000002309F1FF3B04F069F9002800F09E80A8
:10057000B9F1010F40F38B804FF0000804F11A0924
:1005800002E0D84500F0838001234A4631462846E0
:10059000B847013008F10108F3D188E7FFFFEF7F8A
:1005A000E0700008DC700008EC7000080BB9012353
:1005B0006360009321600191002106910EA90591CD
:1005C0000DA903910DF13301424602914B46284695
:1005D000CDF810B0FFF79CFD0D998046C81CFFF6C2
:1005E0000CAF636899423FF708AF4FF0670BD1E655
:1005F000002963685EDD2161002B00F08D800133EE
:100600000B442361D1E623682161DB077FF5CDAE82
:100610004B1C2361C9E60D9B002B52DD0E9BD4F8C9
:1006200058B099465B45A8BFD946B9F1000F089369
:1006300009DD4B46424631462846B84701303FF473
:1006400036AFD4F858B029EAE972934571DD4FF01E
:10065000000A934604F11A0904E0A36DA3EB0B0210
:10066000524565DD01234A4631462846B8470130E8
:100670000AF1010AF1D11AE7D9073FF560AF424606
:10068000012331462846B84701303FF410AF5346A6
:100690003146284604F15002B84701307FF4EDAEF0
:1006A00005E72268D2077FF583AEB8E65B4608F11E
:1006B0000102E6E7002B34D12268D20731D40123AE
:1006C00072E60123314628464B4AB84701303FF4D1
:1006D000EEAEDDE90D3A5AEA030324D0DDE90A2340
:1006E00031462846B84701303FF4E1AE0D9B002B60
:1006F00079DA4FF0000B04F11A0903E00D9B5B421D
:100700005B4570DD01234A4631462846B847013033
:100710000BF1010BF2D1CAE62268D0077FF545AE96
:100720006DE7023340E62268D3077FF5A7AED5E731
:100730009B460D9B089A9A4202DC2268D00708D596
:10074000DDE90A2331462846B84701303FF4AFAE11
:100750000D9B089AA2EB0B0AD31A9A45A8BF9A469A
:10076000BAF1000F91460BDD53463146284608EB9F
:100770000B02B84701303FF49AAE4A460D9BD31A9C
:100780002AEAEA7A53457FF778AE4FF00008DDF8A1
:1007900020B004F11A0907E00D9BABEB0303A3EBB8
:1007A0000A0343457FF769AE01234A46314628468E
:1007B000B847013008F10108EED178E64B46002B2E
:1007C000BCBF2D2384F843302AF0040323600323A5
:1007D0000A4A23610A4B4FF0000ABBF1470F8CBF56
:1007E0009046984636E65346424631462846B84734
:1007F00001307FF442AE5AE6EC700008E870000861
:10080000E47000082DE9F84F92461F460A698B688C
:100810000C469A42B8BF1A46CAF8002091F84330F5
:100820000646DDF8289013B10132CAF8002022688C
:1008300091065FD5DAF800300233CAF8003022683A
:1008400012F0060F11461DD1E1689942D8BF11463A
:1008500018DD4FF0000804F1190B05E0E568DAF83F
:100860000030ED1A45450CDD01235A463946304625
:10087000C847013008F10108F0D14FF0FF30BDE862
:10088000F88F216894F84330003B18BF01238A0693
:100890000AD53021E21882F8431094F845105A1C0A
:1008A0002244023382F843103946304604F14302B1
:1008B000C8470130E1D0D4E902202368DAF80050BB
:1008C00003F00603042B21691BD08A4220DD4FF080
:1008D0000008521A904400251A3401E0454517DA01
:1008E0000123224639463046C847013005F101054B
:1008F000F4D1C2E712F0060F0DD0003B18BF012360
:10090000D2E7401B8A4220EAE078E2DC0028E2DC01
:100910000020BDE8F88FE168DAF800309942D8BFCE
:10092000114696DCAEE700BF2DE9F04717460A7E78
:1009300084B00C46064698460C9D01F1430C002AF3
:1009400035D0A2F15803D9B2202969D8202B67D815
:10095000DFE813F0E60066006600660066006600E9
:1009600066006600660066006600AC007000660007
:10097000660066006600700066006600660066003D
:1009800021008300C60066006600B6006600830092
:1009900066006600EC002B682268181D61692860FB
:1009A00010061B6802D4520600F1E0801960002393
:1009B000E14623613B4621463046CDF8008003AA3C
:1009C000FFF720FF013020D04A46394630462369E0
:1009D000C047013019D02368E0689B07DDF80C9010
:1009E00018D5484516DD002504F1190A04E0E06831
:1009F000A0EB0903AB420DDD0123524639463046D8
:100A0000C047013005F10105F1D14FF0FF3004B0CE
:100A1000BDE8F0874845B8BF484604B0BDE8F08758
:100A2000012084F8422004F142090023206184F867
:100A30004330BFE72A682368111D1806296002D4D5
:100A4000590600F195801068014600286268C0F2DE
:100A500093804FF00A0E534815E020682B6810F081
:100A6000800F53F8041B02D1400648BF89B26F2A99
:100A700014BF4FF00A0E4FF0080E4A482B600023B7
:100A8000626884F84330002AA26051DB236823F0B7
:100A90000403236000294BD1002A7BD1E146BEF13B
:100AA000080F56D0ACEB0903236183E72A680120C5
:100AB000116804322A6004F1420984F84210B4E754
:100AC0002B6800211A1D2A60D3F8009062684846FE
:100AD00000F030FB002863D0A0EB09006060A4E7C1
:100AE000236843F02003236078222F4884F84520B0
:100AF0002A6813F0800F52F8041B03D113F0400F43
:100B000018BF89B22A60DA0744BF43F0200323608C
:100B100019B9236823F0200323604FF0100EAEE7CD
:100B20005823204884F845302368E1E72368DBE751
:100B30007546E146B1FBF5F30A4605FB131A194663
:100B400010F80A30AA4209F8013DF3D2BEF1080FAD
:100B5000A8D12368DD07A5D5626823699A42A1DC84
:100B6000302309F1FF3989F800309BE719801EE72F
:100B7000B2F90010084668E72D20002AA26084F828
:100B8000430002DB23F0040323600A250548AE4638
:100B90004942CEE7037804F1420984F842307EE707
:100BA000606842E7F070000804710008024A0349D7
:100BB000034800F069B900BF000000203D30000884
:100BC000100000200C4B416810B59942044601D03A
:100BD00002F034FAA168094B994202D0204602F093
:100BE0002DFAE168064B994204D02046BDE810403A
:100BF00002F024BA10BD00BFD40100203C02002046
:100C0000A402002008B54B6EDA0702D48B899B053D
:100C100001D5002008BD886D00F082FA002008BDD3
:100C200008B54B6EDA0702D48B899B0501D50020ED
:100C300008BD886D00F07CFA002008BD2DE9F8435E
:100C400000250423304C3149DFF8C490DFF8C4801C
:100C5000314F324E0822C4F8381104F15C002946A5
:100C6000C4E90335C4E90055C4E90555A5606566C6
:100C700000F076F904F15800C4E90849C4E90A878C
:100C8000266300F045FA264B2946082204F1C400E9
:100C90006367C4E91A55C4E91E552567C4F8CC50EA
:100CA000C4F8805000F05CF904F1680304F1C0005E
:100CB000C4F88830C4E92398C4E9257600F028FAFE
:100CC000184B294604F596700822C4F8DC30C4E9B4
:100CD0003455C4E93855C4F8D850C4F83451C4F870
:100CE000E85000F03DF904F1D003C4E93E87C4F8B0
:100CF000F49004F59470C4F80061C4F8F030BDE8D5
:100D0000F84300F005BA00BFD4010020AD0B000885
:100D1000CD0E0008F50E0008350F0008590F000829
:100D20000900010012000200F8B506462A4800F04A
:100D3000F7F92A4BD3F83831002B43D0284FD7E9A5
:100D40000134013B04D524E05A1C04F1680420D08E
:100D5000B4F90C50013B002DF6D1224B04F15800A0
:100D6000E360656600F0D4F91B4800F0E1F9082261
:100D70002946C4E90155C4E904552560A56104F17B
:100D80005C0000F0EDF8C4E90D55C4E912552046A9
:100D9000F8BD3D680DB12F46D1E74FF4D67130460E
:100DA00001F0CEFA044680B10423056029462546A9
:100DB0000C304FF4D072A060636000F0D1F83C605A
:100DC0002F46BCE7FFF73AFFB8E703483C6000F066
:100DD000AFF90C233360DAE730030020D4010020A0
:100DE000000000200100FFFF10B504460B4800F092
:100DF00097F9236A2BB90A4B0A4AD3F83831226291
:100E000023B1BDE81040054800F092B9FFF716FF86
:100E1000BDE81040014800F08BB900BF300300204E
:100E2000D4010020C50B0008014800F079B900BFCB
:100E300030030020014800F07BB900BF30030020E0
:100E400008B5054800F06CF9BDE808400020034AE9
:100E5000034900F019B800BF300300200000002053
:100E6000050C000808B50020044A054900F00CF8FC
:100E7000BDE80840034800F05BB900BF0000002057
:100E8000210C0008300300202DE9F8434FF0000941
:100E900080460F461646D6E90154013D10D4A38979
:100EA000012B08D9B4F90E30013304D02146404655
:100EB000B84749EA0009013D6B1C04F16804EED112
:100EC0003668002EE7D14846BDE8F88310B50C46D9
:100ED000B1F90E1000F0C6F8002803DB636D03447F
:100EE000636510BDA38923F48053A38110BD00BFA7
:100EF000002070472DE9F0410C46B1F90C101F4657
:100F0000CB05054616460BD421F48051A1813B4602
:100F100032462846B4F90E10BDE8F04100F0B8B8EA
:100F2000B4F90E100223002200F086F8B4F90C1078
:100F3000EAE700BF10B50C46B1F90E1000F07CF8DE
:100F4000B4F90C30421C0EBF23F4805343F4805399
:100F50006065A38110BD00BFB1F90E1000F05AB852
:100F600070B5860747D0541E002A3ED00346CAB249
:100F700001E0013C39D303F8012B9D07F9D1032C83
:100F80002CD9CDB205EB05250F2C1A4605EB0545EE
:100F900034D9A4F1100C2CF00F0603F1100EB64456
:100FA0004FEA1C1CC2E90055C2E9025510327245D5
:100FB000F8D10CF1010214F00C0F03EB021204F053
:100FC0000F0C13D0ACF1040323F0030304331344D8
:100FD00042F8045B9342FBD10CF003042CB1C9B27C
:100FE0001C4403F8011BA342FBD170BD64461346A9
:100FF000002CF4D1F9E703461446C0E7A446E1E724
:10100000F0307047004870474C010020004870479E
:101010004C010020002238B5064D044608462A60DF
:1010200003F0FBFE431C00D038BD2B68002BFBD027
:10103000236038BD1003002038B50C46114600224D
:101040008446074D20462A601A46644603F009FF8D
:10105000431C00D038BD2B68002BFBD0236038BD6B
:101060001003002038B50C46114600228446074D77
:1010700020462A601A46644603F096FE431C00D0C0
:1010800038BD2B68002BFBD0236038BD1003002037
:1010900038B50C46114600228446074D20462A608A
:1010A0001A46644603F09DFE431C00D038BD2B68F1
:1010B000002BFBD0236038BD1003002070B50F4B10
:1010C0000F4DAB42A3EB050607D00024B61055F830
:1010D000043B01349847A642F9D805F0D7FE094DE4
:1010E000094B5E1BAB424FEAA60606D0002455F81A
:1010F000043B01349847A642F9D870BD6C720008D1
:101100006C7200086C72000870720008704700BFB3
:10111000704700BF704700BF704700BF704700BFF7
:10112000704700BF0120704701207047704700BF23
:10113000704700BF5FFA81FC810744D00346511E0F
:1011400022B909E09A0709D0013905D31846027877
:1011500001336245F6D170470020704718460329D5
:101160000CD80029F8D00346014401E08B42F3D0AB
:10117000184613F8012B6245F8D1704710B50CEBF7
:101180000C24024604EB044402E00439032915D977
:10119000104652F8043B6340A3F1013E2EEA0303DC
:1011A00013F0803FF1D00346014401E08B4208D0A8
:1011B000184613F8012B6245F8D110BD10460029DE
:1011C000F1D1002010BD1146C9E700BF20F0030196
:1011D00010F00300C0F1000051F8043B00F1040CD2
:1011E0004FEACC0C6FF000021CBF22FA0CF2134342
:1011F0004FF0010C4CEA0C2C4CEA0C4CA3EB0C020B
:1012000022EA030212EACC1204BF51F8043B043074
:10121000F4D0C2F1000102EA0102B2FA82F2C2F194
:101220001F0200EBD20070472DE9F04F03690C69F3
:1012300085B0A342C0F291808146013C01F11405C2
:1012400009F1140855F8243058F824C001339C459E
:10125000BCFBF3F64FEA840005EB840708EB84023D
:1012600043D34FF0000CAA46CDE90105C6466346BC
:1012700065469346CDF80C805AF8040BDEF8002042
:101280001FFA80FC06FB0C554FEA10484FEA154C3C
:1012900006FB08CCADB290B2401B18441FFA8CF389
:1012A000C3EB204303EB124380B240EA03405745AF
:1012B0004EF8040B4FEA1C454FEA2343DCD2DDE92C
:1012C0000105DDF80C8058F8003073B9ABF1040269
:1012D000904504D307E0904504F1FF3403D252F85F
:1012E0000439002BF7D0C9F81040484601F0BAFB8A
:1012F00000282EDB4146002255F8040BD1F800C02F
:101300001FFA80FE1FFA8CF3A3EB0E031344020CAA
:10131000C2EB234202EB1C429BB243EA0243AF42C0
:1013200041F8043B4FEA2242E6D258F8242008EB69
:1013300084036AB9043B434504D807E0984504F1A7
:10134000FF3403D253F80429002AF7D0C9F810401B
:101350000136304605B0BDE8F08F002005B0BDE88D
:10136000F08F00BF2DE9F04F16461F46C5699DB0AE
:10137000CDE90667299C0390002D00F0B28329680F
:1013800051B101236A6893404A608B6001F0A4F870
:101390000022039BDB691A60B7F10009B4BF012387
:1013A00000232360784BBCBF29F00049CDF81C9086
:1013B00033EA090300F0AE80DDE906341846214621
:1013C00000220023CDE9040103F038FA804668B119
:1013D0000123289A13602A9B13B16C4B2A9A13603D
:1013E0006B4B089308981DB0BDE8F08F1AAB0193C2
:1013F0001BAB00930398DDE9042301F091FC5FEA45
:101400001955824640F09C80DDE91A85454405F275
:101410003243202B40F39983C3F1400309FA03F9C7
:1014200005F2124326FA03F349EA030002F024FF0F
:101430000123013D1193A1F1F8710022554B02F0F7
:10144000DDFD4BA3D3E9002302F090FF4AA3D3E9CB
:10145000002302F0D5FD064628460F4602F01CFF89
:1014600047A3D3E9002302F081FF02460B46304632
:10147000394602F0C5FD06460F4603F027FA002262
:101480000446099000233046394603F0E1F900286C
:1014900040F03483099CA8EB0508162C08F1FF3BAB
:1014A00000F21383DDE904013B4B03EBC403D3E9F2
:1014B000002303F0CDF9002874D0631E09930023A4
:1014C000BBF1000F1093C0F2068300230B93099B1E
:1014D000002B6DDA099B0B9A0E93D21A5B420F9385
:1014E00000230993269B0B92092B69D8052BC4BFB7
:1014F000043B2693269BC8BF0025A3F10203D8BF57
:101500000125032B00F24C86DFE813F07A04770400
:101510006E04500442F20F73289AC9F3130959EA72
:10152000060913601CD12A9B002B00F02F861B4B51
:10153000089308332A9A089813601DB0BDE8F08F0D
:10154000DDE90412C2F31303084643F07F51CDF8DE
:101550004480A5F2FF35DDF8688041F440116CE766
:101560002A9B002B40F0FE830D4B08933AE700BF07
:1015700061436F63A787D23FB3C8608B288AC63F99
:10158000FB799F501344D33F0000F07FED700008BB
:10159000EC7000080000F83FB86E000818710008F1
:1015A00024710008B8F1000F40F3AF8410900B9045
:1015B000099B9B440E9300230F93269B092B95D9DF
:1015C000002326934FF0FF3301250A9300230C9547
:1015D00027930021039BDB6959600A9B18930398AA
:1015E00000F03AFF0890002800F0E385039B089A7A
:1015F000DB691A600A9B0E2B00F20D81002D00F0B2
:101600000A810E99002940F34E84AE4B01F00F027F
:1016100003EBC2030A46D3E90067D2054FEA21155E
:1016200040F11084DDE90401A74B4FF00309D3E931
:10163000082302F0C5FFCDE9120105F00F058DB1B9
:10164000DFF88482EB0709D5D8E900233046394614
:1016500002F08CFE06460F4609F101096D1008F1F3
:101660000808EFD1DDE912013B46324602F0A8FF3F
:1016700007468846109B43B1002238464146934BAB
:1016800003F0E6F8002840F01285484602F004FE18
:101690003A46434602F06AFE8D4B002202F0B0FC4F
:1016A0000A9B0446A1F15075002B00F09D800E9B13
:1016B00019930A9B12934146384603F007F9129991
:1016C000804BCDE9144503EBC10353E902340546D1
:1016D000CDE9163402F0E0FD0B460246414638469D
:1016E00002F08CFC089F0C9B30357E1CECB28046CF
:1016F00089463546002B00F06B84DDE91623002077
:10170000744902F05DFFDDE9142302F077FC3C70C0
:1017100042464B4604460D4603F0B8F8002840F018
:10172000B984CDF858B0CDF850A0AB460027A246FA
:10173000129D2AE00137AF4280F20185504659469A
:101740000022654B02F012FE0022634B82468B465C
:101750004046494602F00AFE8946804603F0B6F844
:10176000044602F099FD02460B464046494602F007
:1017700045FC303452465B4606F8014B80468946AC
:1017800003F066F8002840F0D78442464B4600201C
:101790004E4902F033FC52465B4603F059F80028EC
:1017A000C8D0199B3746DDF850A0089A03F101080C
:1017B00002E0974200F0A1843E4617F8013D392B24
:1017C000F7D00133DBB245463B706DE1484602F08D
:1017D00063FD3A46434602F0C9FD00223C4B02F04D
:1017E0000FFC0446A1F15075384600223B4B4146A0
:1017F00002F004FC22462B4606460F4603F046F84C
:10180000002840F0898430463946224605F10043DD
:1018100003F01EF828BB1B9B002BC0F291800E9A90
:101820000E2A00F38D80274B0E9A03EBC203D3E9F7
:101830000034CDE90634279B002B19DA0A9B002BD4
:1018400016DC0ED1DDE906010022244B02F08EFDEC
:1018500002460B46DDE9040103F004F8002800F01D
:101860005B8400231F46089E0493279BDD4340E2D0
:10187000089B5D1CDDE90678DDE904013A46434634
:1018800002F09EFE03F022F8064602F005FD3A46FD
:10189000434602F06BFD02460B46DDE9040102F00F
:1018A000ADFB089A06F1300313700A9B2F46012BFB
:1018B00000F036830125CDF810A0A846DDE906AB7F
:1018C00099462BE0B86E0008A86F00080000F03FB2
:1018D00000001C400000E03F0000244000001440D5
:1018E00052465B462046294602F06AFE02F0EEFFB1
:1018F000064602F0D1FC52465B4602F037FD08F185
:1019000001080B4602462946204602F077FB06F105
:101910003003C84507F8013B00F0008300228D4BDF
:1019200002F024FD0022002304460D4602F086FF4B
:101930000028D5D00E9D3E46DDF810A00135B3E05D
:101940000C9A002A40F0EE8000231F460F9E0B9D4C
:101950000C9365B1BBF1000F09DD5D452B46A8BFB7
:101960005B460B9AED1AD21A0B92ABEB030B0F9B53
:1019700053B10C9B13B1002E40F00B8351460F9ACC
:10198000039800F08BFF82460121039800F0BEFE11
:10199000099B0490002B40F0D081269B012B40F343
:1019A000E6810120584410F01F0000F0B480C0F11F
:1019B0002003042B40F3F5810B9BC0F11C00034472
:1019C0000B93054483440B9B002B05DD51461A46BF
:1019D000039800F0D3FF8246BBF1000F05DDDDE97F
:1019E00003015A4600F0CAFF0490109B002B40F000
:1019F00089810A9B002B40F361810C9B002B40F0F6
:101A0000B8800E9D01350126DDF82080049CDDF8AC
:101A100028B0DDF80C9007E0514600230A22484622
:101A200000F07EFD8246013621465046FFF7FCFB62
:101A3000B34500F1300008F8010BEDDC0A9B81464C
:101A4000002BCCBF1E4601260024089B03EB060B8F
:101A500051460122039800F091FF0499824601F05B
:101A600001F8002840F30282089A02E0934500F052
:101A700015821BF8013C5E46392B0BF1FF3BF5D07C
:101A800001338BF80030DDE90381404600F024FD8E
:101A900057B12CB1BC4203D02146404600F01CFD9A
:101AA0003946039800F018FD5146039800F014FDE4
:101AB00000233370289B1D602A9B002B3FF492ACBF
:101AC00008981E601DB0BDE8F08F0123BBF1000F28
:101AD0001093BFF6FAACC8F101034FF0000B0B9363
:101AE000F5E4102000F0F6FB039BD861002800F01D
:101AF0005183C0E90055C0E902554DE4204602F08B
:101B0000CBFB32463B4602F099FE00287FF4C2AC84
:101B1000631E0993BEE41C230B9A1D441A440B92C6
:101B20009B4450E7269A012A40F3AB810A9A0F9B07
:101B3000561EB342C0F26781002AA3EB060680F26C
:101B4000EF82DDE90A239D1A6AE1C3F1200306FA58
:101B500003F06BE400002440394600230A22039876
:101B600000F0DEFC189B0746002B40F302830E9624
:101B70000A93002D05DD39462A46039800F0FEFE43
:101B80000746099B002B40F0E881B846089B0A9C59
:101B90001E46013B1C44069B03F00103CDE90A43AA
:101BA000039C04995046FFF73FFB39468346504655
:101BB00000F058FF049905464246204600F072FFA7
:101BC000C36801460BF13009ABBB0990504600F0E9
:101BD00049FF09990990204600F07EFC099A002AE5
:101BE00054D1269B1BB90B9B002B00F0AE82002D1D
:101BF0003FDBB3460A9B0BF8019BB34200F0C48164
:101C0000514600230A22204600F08AFC47458246BE
:101C100039464FF000034FF00A02204630D000F062
:101C20007FFC414600230A220746204600F078FC4C
:101C30005E468046B5E7039800F04EFC002D06DBBB
:101C4000069B03F00102269B1D432A4329D15146DE
:101C50000122039800F092FE0499824600F002FFF0
:101C6000002840F3F780B9F1390F00F04B820BF1F7
:101C700031090E9D3C460135474606F8019B02E7B7
:101C800000F04EFC5E46074680468AE7002DC0F213
:101C9000A282269B1D430B9B1D4300F09C82002AC1
:101CA000A7DDB9F1390F00F02D820E9D09F1010376
:101CB0003C460135474606F8013BE4E6269B022BED
:101CC0007FF79BAE0A9B002B40F0268105220499EA
:101CD000039800F025FC01460490504600F0C2FE37
:101CE000002840F3198131230E9D089E013506F826
:101CF000013BDDE9030100F0EFFB0135002F7FF42C
:101D0000CFAED1E65046049900F0ACFE0028BFF6F5
:101D100070AE514600230A2203980E9C00F000FC8E
:101D20000C9B8246661E002B7FF416AF189B002B7F
:101D300040F312820E9D0A9365E601461A46039807
:101D400000F0ACFD269B0490012B6FDD002309936E
:101D5000049A136902EB8303186900F087FCC0F151
:101D600020001FE6964B08930333FFF7E3BB069B67
:101D7000002B7FF416AEDDE90612C2F31303002B2D
:101D80007FF40FAE8F4B13402BB10B9B0BF1010B6C
:101D900001330B930123099A0993002A3FF401AE02
:101DA000D6E73FF410AEC0F13C03B5E601230C9337
:101DB000279B0E9A134418930133012B1F46B8BF7B
:101DC00001270A93039B172FDE6940F2008201224C
:101DD00004235B0003F11400B842114602F1010232
:101DE000F7D97160FFF7FBBB01230C93279B002BF6
:101DF00037DD1F4618930A93E4E700230C93D7E7D7
:101E000000230C93F2E70F9B0F96F31A0026099A12
:101E10001A4409920B9B0A9A1D46134493440B9350
:101E20000121039800F072FC074692E5069B002B07
:101E30008CD1DDE90601C1F313030A46002BA1D0C2
:101E4000099085E7DDE904344FF00209CDE9123449
:101E5000FFF7F5BB7FF40DAF19F0010F7FF403AF6F
:101E600007E7012327930A93FFF7B3BB03D119F0C8
:101E7000010F7FF4F9AD5E461BF8013D302BFAD01F
:101E800001E6119A002A00F0088103F233430B9A0D
:101E90000F9E15461A449B440B92C1E73123089AC2
:101EA00001351370EFE500F0FC80DDE904010E9AC6
:101EB000454B554205F00F0203EBC203D3E9002363
:101EC00002F054FA2D11CDE9120100F059810023DE
:101ED0004FF00209074688463C4EEC070AD5D6E982
:101EE00000233846414602F041FA0123074688465E
:101EF00009F101096D1006F10806EED1002B7FF4FF
:101F0000B9ABDDE91278FFF7B5BBC8F10103834631
:101F10000B931090FFF74CBB089EA6E4DDF810A0D1
:101F200002460B4602F06CF802460B460E9DCDE9C8
:101F30000423DDE906230135A84602F0A7FC40B9D9
:101F4000DDE90623DDE9040102F078FC18B1F007B1
:101F500001D5089A30E43E46A6E50398796800F07A
:101F60007BFA0546002800F02B813B6907F10C0144
:101F700002339A000C3001F0B3F80122294603988D
:101F800000F0FCFC804601E60E9D3C4601354746CC
:101F90005EE5039C39463246204600F07FFC07464A
:101FA00052463946204600F0C7FB5146824620463D
:101FB00000F092FA0F9B9B1B0F933FF4E5ACDDE41E
:101FC000247100080000F07FB86E0008A86F0008B8
:101FD000DDE91623DDE9140102F0C8F9089BCDE91B
:101FE0000C011C70129B012B00F0C180129F089BFA
:101FF00011961F440022804B4046494602F0B6F934
:102000000D46044602F062FC814602F045F90246A4
:102010000B462046294601F0F1FF09F1300906F888
:10202000019BB74280468946E4D1119D0022DDE93B
:102030000C01724B01F0E4FF02460B464046494654
:1020400002F024FC002871D1DDE90C2300206B494B
:1020500001F0D4FF02460B464046494602F0F8FB29
:1020600088B91B9B002BFFF66FAC0E9B0E2B3FF726
:102070006BAC634B0E9A03EBC203D3E90034CDE99A
:102080000634FFF7F7BB17F8013C3E46302B07F14B
:10209000FF37F8D0199D013506E51A9BC3F13603C9
:1020A000F5E64FF00209DDE90478FFF7E3BA0A9B91
:1020B000002B3FF48BAB189C002C7FF7ACAB0E9B36
:1020C0003846013B4146002219934B4B02F04EF932
:1020D00002468846174609F1010002F0DDF83A464B
:1020E000434602F043F90022464B01F089FF129467
:1020F000A1F150750446FFF7DEBA312308F101085B
:10210000FFF761BBB34639230E9D3C46089A47460C
:1021100001350BF8013BACE400231F460493E2E5D4
:102120000B9B93441D4613440B9379E6199B089A25
:1021300003F10108FFF740BBDDF850A0AAE7DDF886
:1021400058B0DDF850A0FFF766BBB9F1390FD9D010
:10215000002D3FF78CAD8CE5269B022B03DC189BF2
:102160000E9D0A934FE4189B0E960A93AAE53746F4
:102170005CE7269B022BF6DC189B0E960A93F8E48C
:102180004FF00209DDE91278FFF774BA1E4B08938D
:10219000FFF728B90246EF211C4B1D4801F016F845
:1021A000002503982946C3695D6000F055F9089041
:1021B000A8B9002240F2AF11164B154801F006F8FD
:1021C000024640F2EF21134B114800F0FFFF0021BF
:1021D0007160FFF704BA002A3FF739AD49E5039B68
:1021E0000899DB694FF0FF32196001232795189297
:1021F0000C930A92FFF70FBB000024400000E03F61
:10220000B86E000800001C40187100082871000812
:10221000407100087C710008002950D038B551F891
:10222000043C0C1F002BB8BFE418054600F008F969
:10223000274A13682BB1A3420CD921686018834246
:102240002CD0284663601460BDE8384000F0FEB82A
:10225000A3420FD81A465B68002BF9D111685018B9
:10226000844217D02CD3636054602846BDE83840C0
:1022700000F0ECB811685018A04214D020D82168A2
:1022800060188342EFD118685B680844C4E9000312
:102290005460EAE723680B441360E6E718685B685C
:1022A00008442060CDE72068014450188342116043
:1022B000DBD1D3E900040144C2E90014D5E770473B
:1022C0000C2328462B60BDE8384000F0BFB800BFA3
:1022D00038030020024B0146186800F031B800BFF7
:1022E0000C000020024B01461868FFF795BF00BFA5
:1022F0000C00002070B5114E054633680C46BBB18A
:102300002146284600F0DAFE431C01460CD0C41CCE
:1023100024F00304A04205D02846611A00F0CEFE46
:10232000013001D0204670BD4FF0FF34204670BD13
:10233000194600F0C3FE3060E2E700BF340300201E
:102340002DE9F843CD1C25F0030508350C2D38BFC9
:102350000C25002D064618DBA94216D8DFF8DC80D4
:1023600000F06EF8D8F80420A2B1144603E06368C8
:1023700022467BB11C4623685B1BF8D40B2B1FD86D
:102380009442636854D053600CE00C233360002007
:10239000BDE8F88329463046FFF7ACFF431C0446EE
:1023A00019D00560304600F051F804F10B00231DF0
:1023B00020F00700C21A1CBF1B1AA350BDE8F88307
:1023C00061199442256014BF5160C8F8041063512C
:1023D00063684B60E6E7D8F804701FB33C467F683B
:1023E000002FFBD123683946304604EB030900F087
:1023F00065FE814516D123683046ED1A2946FFF760
:1024000079FF01300ED02368D8F804202B442360D4
:10241000536883B1A34203D01A465B689C42FBD148
:102420000023B0E70C233046336000F00FF8AEE72E
:10243000C8F80430B6E7C8F80470B3E734030020E6
:102440000148FEF76DBE00BF240300200148FEF7DF
:102450006FBE00BF2403002070B5C66905460C4658
:102460005EB1F368A3B153F82400E8B1026843F801
:1024700024200023C0E9033370BD1020FFF72AFF9A
:102480000646E861E8B10023C0E90033C0E9023341
:1024900021220421284600F0BFFEEB69F060DB68D2
:1024A000002BE0D1002070BD0121284601FA04F57F
:1024B0006A1D920000F0B0FE0028F3D0C0E901458B
:1024C000D7E702466B21024B024800F07FFE00BFB7
:1024D000287100089071000870B5C66905460C4661
:1024E0004EB13CB1EB696268DB6853F822102160A1
:1024F00043F8224070BD1020FFF7ECFEE86120B1E8
:10250000C0E90066C0E90266EBE702468F21024B94
:10251000024800F05BFE00BF2871000890710008BF
:102520002DE9F0414FF0000E0E461C460D6907469E
:1025300001F1140001680EF1010E8BB202FB03439E
:10254000090C4FEA134C02FB01CC9BB203EB0C438A
:10255000754540F8043B4FEA1C44EBDC3CB1B368E2
:10256000AB4207DD06EB850301355C613561304622
:10257000BDE8F081716838460131FFF76DFF804694
:1025800090B1326906F10C01023292000C3000F079
:10259000A7FD314646463846FFF79EFF06EB85030A
:1025A00001355C613561E2E70246BA21014B024820
:1025B00000F00CFE7C710008907100082DE9F843D2
:1025C0001E460C4626490833174681FB032C092E6C
:1025D0004FEAE3730546C3EB6C0339DD4FF0010CA2
:1025E00000214FEA4C0C634501F10101F9DC28465A
:1025F000FFF732FF014668B3089B092F43614FF094
:102600000103036112DC09270A34BE420BDDF61B0D
:10261000264414F8013B0A222846303BFFF780FF8E
:10262000B4420146F5D10846BDE8F88304F1090932
:10263000C8463C4418F8013B0A222846303BFFF7C5
:102640006FFFA0450146F5D1A7F108044C44DCE733
:102650000021CCE70246D321024B034800F0B6FD2F
:10266000398EE3387C71000890710008B0F5803F26
:1026700003463ABF102083400020B3F1807F3CBF67
:102680001B020830B3F1805F3CBF1B010430B3F183
:10269000804F03D3002B06DB013070479B0003D42F
:1026A0005B0003D42020704702307047033070472E
:1026B0000368014613F0070209D0DA0721D498070E
:1026C0004BBF5B089B08012002200B60704798B24B
:1026D000A0B11046DAB20AB908301B0A1A0704BFC3
:1026E0001B0904309A0704BF9B080230DA0703D4A1
:1026F0005B0800F1010006D00B6070471020C3405A
:10270000E8E7002070472020704700BF10B50C4656
:102710000121FFF7A1FE024618B10123C0E90434EC
:1027200010BD40F24511024B024800F04FFD00BFC2
:102730007C710008907100082DE9F04FD1F81080ED
:1027400015690E46A845924685B005DB2A465346D4
:1027500045468A4690461E46DAF80830DAF80410F4
:1027600005EB0804A342B8BF0131FFF775FE00284E
:1027700000F0898000F1140707EB840E774505D23D
:102780003B46002243F8042B9E45FBD8143606EB4B
:1027900088080AF11409464509EB850566D2A5EBC0
:1027A0000A03153B23F003030AF1150A04335545C8
:1027B0002CBF9B464FF0040BCDF808E08246AE4696
:1027C000039405E0090C2AD1B04507F104074AD962
:1027D00056F8041B8DB2002DF4D0CC463C460023A5
:1027E00001965CF8040B216886B28AB205FB0622CA
:1027F000000C090C05FB00111A4401EB124192B2C6
:1028000042EA0142E64544F8042B4FEA1143E8D876
:10281000019E47F80B3056F8041C090CD4D0002256
:102820003B6848461D463C46944602889BB201FBE5
:1028300002C202EB154243EA024344F8043B50F85B
:10284000043B25684FEA134CABB201FB0C337045D7
:1028500003EB12434FEA134CE7D3B04547F80B3074
:1028600007F10407B4D8DDE902E45046002C02DC8D
:1028700005E0013C03D05EF8043D002BF9D0046173
:1028800005B0BDE8F08F02464FF4B171014B02482C
:1028900000F09CFC7C710008907100082DE9F0416B
:1028A00012F003031446074682B02DD10E46A41041
:1028B0001CD0FA698AB39568002D39D0E3074FF030
:1028C000000806D4641011D0286898B10546E307C3
:1028D000F8D531462A463846FFF72EFF03463146E3
:1028E00038461E46FFF7F8FD6410EDD1304602B0C1
:1028F000BDE8F0812A4629463846FFF71DFF2860CB
:102900000546C0F80080E2E7184A013B52F8232050
:102910000023FFF705FE0646C9E71020FFF7DAFCA3
:102920000246F861E0B10023C0E90033C0E9023398
:10293000012138460192FFF78FFD019A054640B10B
:10294000012340F27121C0E904310023906003604B
:10295000B4E7024640F24511054B064800F036FC4C
:1029600040F2B311044B034800F030FCA86E00089D
:102970007C71000890710008287100082DE9F0476B
:102980000D462F69AB6807EB62177C1C9C42914691
:10299000064649684FEA621A04DD5B009C4201F179
:1029A0000101FADC3046FFF757FD804600284ED083
:1029B000BAF1000F00F114000EDD034600210AF108
:1029C00005024FEA820C08EB820243F8041B934293
:1029D000FBD1ACF114031844296905F1140319F073
:1029E0001F0903EB81012AD084464FF0000AC9F188
:1029F000200E1A6802FA09F242EA0A024CF8042B85
:102A000053F8042B994222FA0EFAF2D84B1B153BCD
:102A100023F00303043305F11502914238BF042368
:102A200040F803A0BAF1000F00D13C4630462946D9
:102A3000C8F81040FFF750FD4046BDE8F087043865
:102A400053F8042B994240F8042FF9D8EDE70246D9
:102A50004FF4EF71014B024800F0B8FB7C710008A5
:102A60009071000884460B690069C01A15D10CF1F9
:102A7000140C14310CEB830210B401EB830301E05E
:102A8000944508D252F8044D53F8041D8C42F7D0F7
:102A900004D24FF0FF3010BC70477047012010BCCB
:102AA000704700BF2DE9F04F14460A692369884634
:102AB000D21A002A83B040F0888001F1140604F194
:102AC000140202EB830206EB830301E09E427FD2F5
:102AD00053F8045D52F8041D8D42F7D076D3234697
:102AE0000025444698466168FFF7B6FC002800F0D0
:102AF000898000F1140949464FF0000C2769D8F885
:102B0000106004F1140B08F1140EC56004F11002FA
:102B10000EEB86060BEB870ACDF804B05EF8044B8B
:102B200052F8045F1FFA84FBABB2A3EB0B03240C37
:102B30006344C4EB154404EB23449BB243EA0443CF
:102B4000764541F8043B4FEA244CE7D808F11501DB
:102B50008E4234BF00210121A6EB0806153EB608BF
:102B6000002906F101024FEA820208BF0422DDF8C3
:102B700004B00BEB0204A2454A4434D91546214661
:102B8000E04651F8046BB3B263444FEA164E0EEBC5
:102B9000234E06EB08039BB243EA0E438A454FEAF5
:102BA0002E4C45F8043BEBD80AF1FF3AAAEB040A95
:102BB0002AF0030A524423B952F8043D013F002B86
:102BC000FAD0076103B0BDE8F08F88DA01258AE703
:102BD0000021FFF741FC70B101220023C0E904236A
:102BE00003B0BDE8F08F00294FEA860608BF002633
:102BF00009EB0602DFE7024640F23721054B0648A3
:102C000000F0E4FA024640F24521024B024800F08F
:102C1000DDFA00BF7C71000890710008124B0A4673
:102C20000B40A3F15073002B03DD00221946104620
:102C300070475B42B3F1A07F4FEA235106DA4FF4AD
:102C4000002300220B4119461046704714391E29F3
:102C5000D4BF4FF0004201224FF00003D8BFCA405A
:102C600010461946704700BF0000F07FF8B50469B0
:102C700000F1140202EB840454F8045C261F284679
:102C8000FFF7F4FC0346C0F120000A2B086030DD9A
:102C9000B242A3F10B071AD254F8083C1FB3C7F194
:102CA000200C23FA0CF1BD4045EA0106A4F1080509
:102CB00046F07F51AA4203FA07F341F4401116D2BD
:102CC00054F80C2C22FA0CF213431846F8BD0B2BC7
:102CD00008D0002305FA07F747F07F51184641F462
:102CE0004011F8BD002345F07F5141F440111846D2
:102CF000F8BDB2422CBF002254F8082CC3F10B07D8
:102D000003F1150325FA07FC38BFFA4005FA03F36F
:102D10004CF07F511343184641F44011F8BD00BFF9
:102D2000F0B5012183B016461F46FFF795FB054617
:102D3000002847D0C7F30A54C7F313030CB143F478
:102D40008013002E019314D101A8FFF7B1FC0122DA
:102D5000019B20306B612A6114B3089BA4F23344B9
:102D600004441C60099BC0F135001860284603B07C
:102D7000F0BD68460096FFF79BFC019B00B30099ED
:102D8000C0F1200203FA02F2C34001930A43002B70
:102D90006A610CBF01220222AB612A61002CDCD1E6
:102DA00005EB8201A0F23243086908990B60FFF736
:102DB0005DFC099BC0EB42101860284603B0F0BDD3
:102DC000009AE4E7024640F20F31024B024800F05D
:102DD000FDF900BF7C710008907100082DE9F043F7
:102DE00083B0884669468146FFF740FF04460D469A
:102DF000404601A9FFF73AFFD9F81030D8F8102063
:102E0000A3EB020CDDE900329B1A03EB4C13002B01
:102E10000BDD05EB03573D4602460B46204629468F
:102E200001F0CEFB03B0BDE8F083C3EB033301EB4D
:102E300003594946F0E700BF172870B506460ADD7A
:102E4000002000240749084D22462B4601F08EFA47
:102E5000013EF9D170BD054B03EBC003D3E904017A
:102E600070BD00BF0000F03F00002440A86E0008C5
:102E700001F1FF3C116902F114034FEA6C1C03EBF2
:102E800081010CF1010C8B4200EB8C0C16D210B5B9
:102E9000A0F1040E53F8044B99424EF8044FF9D8B0
:102EA0008B1A153B23F0030304331844844504D9DB
:102EB000002340F8043B8445FBD810BD844505D968
:102EC000002340F8043B8445FBD87047704700BF9F
:102ED00003694A11934200F1140009DA00EB8303FD
:102EE00002E053F8042DA2B98342FAD800207047BB
:102EF00000EB8203F8DD11F01F01F5D010B450F89B
:102F0000224024FA01F28A40944208D0012010BCE9
:102F100070470120704753F8042D002AF6D18342F0
:102F2000F9D8002010BC7047F8B5B1F90C300C4648
:102F30001E07074639D44A68002A53DDE56A002D8A
:102F400031D000223E683A6013F48052216A55D194
:102F500001233846A847451C024663D0B4F90C301B
:102F6000E56A216A580705D56368D21A636B0BB10D
:102F7000236CD21A00233846A847421C40D00022B6
:102F8000236962602360A389DB0400D56065616BFF
:102F90003E6041B104F14403994202D03846FFF744
:102FA0003BF9002363630020F8BD0E69002EFAD0C0
:102FB0009B0718BF00230D6808BF4B690E60AD1B4F
:102FC0008B600CE02B463246D4F828C03846216A84
:102FD000E047B0F1000CA5EB0C05664406DD002DC2
:102FE000F0DCE0E70A6C002AA8DCDCE7B4F90C307E
:102FF00043F040034FF0FF30A381F8BD626DB1E7AD
:103000003968B4F90C301D29F2D80B4ACA40D507EB
:10301000EED50022626022692260DA04B7D5002969
:10302000B4D0B4E73B68002B98D01D2B01D0162BF1
:10303000DCD13E60B7E700BF0100402038B50B6926
:10304000CBB10C46054608B1036ABBB1B4F90C30EC
:103050008BB1626ED00701D4990512D5284621465E
:10306000FFF762FF636E0546DA0702D4A3899B056A
:103070000BD5284638BD0025284638BDFDF7B4FEDF
:10308000E4E7A06DFEF74CF8E8E7A06DFEF750F816
:10309000EFE700BF014618B1044B1868FFF7CEBF39
:1030A000034A04490448FDF7EFBE00BF0C000020AE
:1030B000000000203D30000810000020002238B53C
:1030C000064D044608462A6001F016FE431C00D057
:1030D00038BD2B68002BFBD0236038BD10030020C7
:1030E000844641EA000313F0030349D1403A23D355
:1030F0000B6803604B6843608B688360CB68C36078
:103100000B6903614B6943618B698361CB69C3615F
:103110000B6A03624B6A43628B6A8362CB6AC36247
:103120000B6B03634B6B43638B6B8363CB6BC3632F
:1031300040304031403ADBD230320BD30B68036071
:103140004B6843608B688360CB68C360103010317C
:10315000103AF3D20C3205D351F8043B40F8043B4B
:10316000043AF9D2043208D0D2071CBF11F8013B4F
:1031700000F8013B01D30B8803806046704700BF15
:10318000082A13D38B07B1D010F00303AED0C3F1DC
:103190000403D21ADB071CBF11F8013B00F8013B06
:1031A000A4D331F8023B20F8023B9FE7043AD9D37D
:1031B000013A11F8013B00F8013BF9D20B7803709A
:1031C0004B7843708B78837060467047144600B527
:1031D0001A460A4B0D461B6885B0DE6803464CB1A3
:1031E00007490191304607490294009500F06EF8B6
:1031F00000F080F804490C46F3E700BF0C00002003
:10320000DC710008EC710008E871000808B513468D
:103210000022FFF7DBFF00BF70B5A1FB025454B9D9
:103220002946FFF78DF8064618B12A462146FDF7D4
:1032300097FE304670BD0C2200260260F9E700BF01
:1032400010B4034CD4F8E440A44610BC604700BF5F
:103250005C00002082B049B15AB16BB113780B60A9
:103260001278101E18BF012002B0704701A9002A71
:10327000F3D1104602B070476FF00100F4E700BFD1
:1032800010B4034CD4F8E040A44610BC604700BF23
:103290005C000020034649B1FF2A02D801200A70D1
:1032A00070478A224FF0FF301A6070470846704717
:1032B0000CB400B583B004AB53F8042B019300F0B9
:1032C0005DF803B05DF804EB02B070470EB400B5D2
:1032D000074A82B003AB0146106853F8042B0193F0
:1032E00000F04CF802B05DF804EB03B0704700BF8B
:1032F0000C000020062008B500F0E2FC012001F0DF
:1033000048FD00BF9368013B002B936005DAD2F8BB
:1033100018C0634507DB0A2905D01368581C1060E4
:1033200008461970704700F007BB00BF9BB1F8B5A5
:10333000134406460F46541E5D1E01E0AC4208D001
:103340003A46304614F8011FFFF7DCFF431CF5D165
:10335000F8BD0020F8BD0020704700BF936810B58D
:1033600014461BB918460023636010BD00F06EF9C7
:103370000023A3600023636010BD00BF2DE9F04F60
:10338000A1B08B4691461C46049018B1036A002BED
:1033900000F04181DBF86420BBF90C30D20702D485
:1033A0009F0540F131811E0740F19A80DBF8103013
:1033B000002B00F09580002343F220020D9399F832
:1033C00000300127954E0794ADF83920002B77D0B7
:1033D0004D4604E015F8013F002B00F09780252BA7
:1033E000F8D1B5EB090A40F094802B78002B67D018
:1033F00000234FF0FF320135CDE9092308930B93E9
:103400008DF863301E9306E02546089B801B07FA63
:1034100000F0034308932C46052214F8011B3046A4
:10342000FDF788FEA1460028EED1089BD80644BFD0
:1034300020228DF86320190748BF2B22297848BF26
:103440008DF863202A297AD1079A1168043200295D
:103450000792C0F2AD800B9169782E2900F086802A
:103460006F4C03222046FDF765FE38B14022089BD1
:10347000001B8240134309F10109089319F8011B4D
:10348000062268488DF83810FDF754FE002800F039
:103490009580654B002B7ED007A900915A46049871
:1034A000624B08A9FCF70CFF0390039B013307D084
:1034B0000D9B039A13440D9399F80030002B87D18C
:1034C000DBF8643013F0010FBBF80C3002D19A0521
:1034D00040F193805B0616D40D9821B0BDE8F08FC3
:1034E0005946049800F076FA00283FF464AFDBF800
:1034F0006430DD0707D4BBF80C309C0503D4DBF83F
:103500005800FDF715FE4FF0FF30E6E7B5EB090A6E
:10351000D6D009F1FF3805954546DDF8108001E069
:10352000A2453FD92C465A46404615F8011FFFF7E1
:10353000E9FE02340130A4EB0904F1D1C0E7A1F1A6
:103540003002092A88BFA94687D80B9B00E00134C6
:10355000217803EB830302EB4303A1F13002092A34
:10356000F5D92E29A1460B937FF47AAF99F8011073
:103570002A292DD1079B09F102001A680433002A79
:103580000793B8BF4FF0FF3399F8021009928146B4
:10359000B8BF099364E7079B073323F00703083399
:1035A000079385E70D99059D51442B780D911DE7F3
:1035B000494243F002030B9108934DE707A900919C
:1035C0005A460498194B08A9FDF7AEF903906CE729
:1035D0000023A1F13002092A09F1010909933FF6FC
:1035E0003FAF19F8011F03EB830302EB4303A1F183
:1035F0003002092AF5D9099332E7DBF85800FDF7C4
:1036000097FDBBF80C3065E7DBF85800FDF788FD47
:10361000BBF90C30C7E6FDF7E7FBBBE61C72000800
:103620002472000828720008C10200082D33000827
:103630008C4600B586461346034A714610685DF80D
:1036400004EB6246FFF79ABE0C0000209368002B43
:1036500000F0F0802DE9F04FB1F90CC090461CF05D
:10366000080F81460C4683B02BD00B694BB31CF07E
:103670000207D8F8006032D04FF0000A5546D4F85F
:1036800028B0216AAB4FC5B1BD422B46524628BF78
:103690003B464846D847002840F3C280D8F8083057
:1036A00082441B1A2D1AC8F80830002B00F0AE8097
:1036B000D4F828B0216A002DE6D1D6E900A5083655
:1036C000E1E72146484600F085F9002840F0AD804A
:1036D000B4F90CC0D8F800601CF00207CCD11CF083
:1036E000010A63D157462368A16818468B46002F0C
:1036F00058D01CF4007F00F0B180B9420A4600F2B5
:10370000DD801CF4906F2FD0216962695D1A02EB95
:10371000420202EBD2726B1C52103B44934292BFA6
:1037200093469B461A461CF4806F00F0E6801146D3
:103730004846FEF705FE002800F0F5802A4621697C
:103740000190FFF7CDFCA289019B22F4906242F028
:103750008002A2815819C4F814B0ABEB05053A46B3
:10376000BB462361A56020603D460027514601927B
:1037700000F092F9A1682368019AA1EB0B011A44A9
:10378000A1602260D8F80830AA445B1BC8F8083052
:10379000002B3BD02368A16818468B46B4F90CC0B7
:1037A000002FA6D1D6E900A708369EE73846BB46CB
:1037B0003D46002D40D0002845D03A46D4E904C308
:1037C0002068AA4228BF2A466045A16804D901EBB7
:1037D000030A524500F38280934272DC5A464846FF
:1037E000216AD4F828C0E047B0F1000A18DDB7EB31
:1037F0000A070FD00120D8F80830D344A3EB0A03FE
:10380000A5EB0A05C8F80830002BD2D1002003B080
:10381000BDE8F08F21464846FFF710FC0028EAD0AB
:10382000B4F90C3043F04003A3814FF0FF3003B0F4
:10383000BDE8F08F00207047756833460836002DCC
:10384000FAD0D3F800B02A460A215846FDF772FC98
:10385000002865D00130A0EB0B07AEE722699A4241
:1038600014D36569BD4211D86FF00043BB4228BF35
:103870003B4693FBF5F3524605FB03F34846A56A26
:10388000216AA847051ECBDD7F1B7BE7B94228BF15
:1038900039460D46184651462A4600F0FDF8A16803
:1038A0002368491B2B44A16023600029ECD12146E9
:1038B0004846FFF7C3FB0028E6D0B1E7BB463A46CF
:1038C00052E75946019200F0E7F8019AA368924640
:1038D0009B1AA36023681344236088E75946524625
:1038E00000F0DAF823682146534448462360FFF786
:1038F000A5FB00283FF47BAF92E7484600F092FA20
:10390000034600287FF426AF48462169FEF784FC71
:103910000C22B4F90C30C9F8002023F0800381E7B1
:103920006A1C17464AE70C22B4F90C30C9F800208B
:1039300078E700BF00FCFF7FF8B506460D46144649
:1039400010B1036A002B37D0A269A389A2601A07BD
:1039500019D52369BBB122686169D31AEDB29942C6
:103960002F4620DD0133A1680139A160511C21607F
:10397000157062699A420DD0A389DB0701D50A2D23
:1039800008D03846F8BD2146304600F023F838B953
:103990002369E0E721463046FFF750FB0028F0D0CE
:1039A0004FF0FF37EDE721463046FFF747FB002891
:1039B000F6D101232268D6E7FDF716FAC4E700BF67
:1039C00003460A46024908681946FFF7B5BF00BF1B
:1039D0000C00002038B52F4B05461B680C4613B170
:1039E0001A6A002A4BD0B4F90C3018071CD522698A
:1039F00022B313F0010107D000206169A0604942A1
:103A0000A1613AB1002038BD980758BF6169A16033
:103A1000002AF7D1190658BF1046F4D543F04003E9
:103A2000A3814FF0FF3038BDD9062CD55A0712D4E8
:103A3000226943F00803A381002ADAD103F420713C
:103A4000B1F5007FD5D02146284600F01DFAB4F923
:103A50000C302269CDE7616B51B104F1440291420F
:103A600004D02846FEF7D8FBB4F90C30002262637C
:103A70000021226923F02403C4E90021D9E7184674
:103A8000FDF7B2F9AFE7092243F040032A60A381B2
:103A9000C7E700BF0C00002088420ED98B18834274
:103AA0000BD900EB020C002A6DD0624613F801CD51
:103AB000994202F801CDF9D170470F2A0FD8034679
:103AC00002F1FF3C002A5ED00CF1010C013B8C445A
:103AD00011F8012B614503F8012FF9D1704740EA35
:103AE00001039B0750D1A2F1100370B501F1200C26
:103AF00023F00F0501F1100E00F11004AC441B0976
:103B00005EF8105C0EF1100E44F8105C5EF81C5C60
:103B1000103444F81C5C5EF8185C44F8185C5EF8DD
:103B2000145CE64544F8145CEAD1013312F00C0F42
:103B300001EB031102F00F0400EB031328D08E46B3
:103B4000043C24F003064FEA940C1E441C1F5EF84C
:103B5000045B44F8045FB442F9D10CF1010402F0B3
:103B6000030203EB840301EB840102F1FF3C4AB141
:103B70000CF1010C013B8C4411F8012B614503F859
:103B8000012FF9D170BD7047034602F1FF3C9BE75E
:103B90002246EAE738B5C46B0CB1002038BD80215D
:103BA0000546FEF7CDFB0246E86330B1031F7C32C9
:103BB00043F8044F9342FBD1EFE74FF0FF3038BD9D
:103BC00030B51F29054683B008D8C36B0C4653B1E6
:103BD00053F8240043F8242003B030BD16230360BB
:103BE0004FF0FF30F8E780210192FEF7A9FB019A20
:103BF0000346E8630028F3D0011F00F17C05002094
:103C000041F8040FA942FBD1E2E700BF1F2938B5F4
:103C100005461ED8C26B0C466AB152F8213053B12A
:103C2000012B06D0591C10D00021204642F8241048
:103C30009847002038BD284600F0F2F82246014699
:103C40002846BDE8384000F0D7B8162301202B6085
:103C500038BD16234FF0FF302B6038BD1F292BD8FD
:103C600038B5C36B0C460546A3B153F8242003EBCB
:103C700084034AB1511C0BD0012A07D000252046ED
:103C80001D609047284638BD012038BD032038BD4F
:103C9000022038BD8021FEF753FB0346E86340B1A4
:103CA00000201A1F03F17C0142F8040F8A42FBD165
:103CB000DBE74FF0FF3038BD4FF0FF30704700BFFB
:103CC00038B5134B1F281D681DD8EA6B044662B136
:103CD00052F820304BB1012B05D0591C0FD00021D8
:103CE00042F820109847002038BD284600F098F888
:103CF000224601462846BDE8384000F07DB816232C
:103D000001202B6038BD16234FF0FF302B6038BDEB
:103D10000C000020114B1F2870B51E6808D8F36BEB
:103D200004460D464BB153F8240043F8245070BDAF
:103D3000162333604FF0FF3070BD80213046FEF710
:103D4000FFFA0346F0630028F4D00021021F7C3004
:103D500042F8041F8242FBD1E5E700BF0C000020BF
:103D600038B50B4B1D68EC6B0CB1002038BD8021C1
:103D70002846FEF7E5FAE86338B1031F00F17C023C
:103D800043F8044F9342FBD1EFE74FF0FF3038BDCB
:103D90000C00002038B5174B1F281D6826D8044694
:103DA000E86BA0B150F8242000EB84034AB1511C09
:103DB0000BD0012A07D0002520461D6090472846D9
:103DC00038BD012038BD032038BD022038BD802118
:103DD0002846FEF7B5FAE86340B10021031F00F161
:103DE0007C0243F8041F9342FBD1DBE74FF0FF3026
:103DF00038BD00BF0C00002070B50026074D0446FA
:103E0000084611462E6000F0B4FF431C00D070BD80
:103E10002B68002BFBD0236070BD00BF1003002077
:103E200000F0A0BF2DE9F041144641B30AB30646A5
:103E30000D4600F0D7F88442074602D8B4EB500F85
:103E400013D821463046FEF77BFA804650B1BC427B
:103E50002246294628BF3A46FFF742F9294630460E
:103E6000FEF7DAF94046BDE8F081A8464046BDE8D5
:103E7000F081A046FEF7D0F94046BDE8F08111463A
:103E8000BDE8F041FEF75CBA70B5B1F90C300C46F4
:103E9000990796B007D5012204F14703C4E904321B
:103EA000236016B070BDB4F90E100546002929DB59
:103EB0006A4600F071F8002822DB4FF48061284642
:103EC000019EFEF73DFA88B3A38906F4704643F0DD
:103ED0008003A3814FF48063B6F5005FC4E9040357
:103EE0002060DED12846B4F90E1000F069F80028F1
:103EF000D7D0A38923F0030343F00103A381D0E7C4
:103F0000B4F90C3013F0800F14BF40264FF48066D4
:103F100028463146FEF714FA40B1A389C4E90406E5
:103F200043F080032060A38116B070BDB4F90C305B
:103F30009A05B6D4012123F0030304F1470243F0AC
:103F40000203C4E90421A3812260AAE770B50C46EC
:103F5000B1F90E10154600291E4696B00FDB6A46D1
:103F600000F01AF800280ADB019B4FF4806203F48A
:103F70007043A3F50053B3FA83F35B0907E0A2890A
:103F8000002312F0800F14BF40224FF48062002003
:103F900033602A6016B070BD70B50026074D044628
:103FA000084611462E6000F043FF431C00D070BD50
:103FB0002B68002BFBD0236070BD00BF10030020D6
:103FC000002238B5064D044608462A6000F03FFF3F
:103FD000431C00D038BD2B68002BFBD0236038BDBC
:103FE0001003002051F8043C181F002BBCBF0B58D5
:103FF000C018704781F0004102E000BF83F0004329
:1040000030B54FEA41044FEA430594EA050F08BF73
:1040100090EA020F1FBF54EA000C55EA020C7FEA37
:10402000645C7FEA655C00F0E2804FEA5454D4EBB4
:104030005555B8BF6D420CDD2C4480EA020281EA7E
:10404000030382EA000083EA010180EA020281EAB6
:104050000303362D88BF30BD11F0004F4FEA013108
:104060004FF4801C4CEA113102D0404261EB410117
:1040700013F0004F4FEA03334CEA133302D052429D
:1040800063EB430394EA050F00F0A780A4F1010459
:10409000D5F1200E0DDB02FA0EFC22FA05F2801893
:1040A00041F1000103FA0EF2801843FA05F3594179
:1040B0000EE0A5F120050EF1200E012A03FA0EFCF8
:1040C00028BF4CF0020C43FA05F3C01851EBE37122
:1040D00001F0004507D54FF0000EDCF1000C7EEB3F
:1040E00000006EEB0101B1F5801F1BD3B1F5001F7D
:1040F0000CD349085FEA30004FEA3C0C04F101049C
:104100004FEA445212F5800F80F09A80BCF1004FC4
:1041100008BF5FEA500C50F1000041EB045141EA46
:10412000050130BD5FEA4C0C404141EB0101013C0F
:1041300028BFB1F5801FE9D291F0000F04BF0146FE
:104140000020B1FA81F308BF2033A3F10B03B3F1D0
:1041500020020CDA0C3208DD02F1140CC2F10C0260
:1041600001FA0CF021FA02F10CE002F11402D8BFBE
:10417000C2F1200C01FA02F120FA0CFCDCBF41EA8A
:104180000C019040E41AA2BF01EB0451294330BD59
:104190006FEA04041F3C1CDA0C340EDC04F1140436
:1041A000C4F1200220FA04F001FA02F340EA03000D
:1041B00021FA04F345EA030130BDC4F10C04C4F153
:1041C000200220FA02F001FA04F340EA0300294633
:1041D00030BD21FA04F0294630BD94F0000F83F47D
:1041E000801306BF81F480110134013D4EE77FEA60
:1041F000645C18BF7FEA655C29D094EA050F08BFAC
:1042000090EA020F05D054EA000C04BF194610468C
:1042100030BD91EA030F1EBF0021002030BD5FEAD0
:10422000545C05D14000494128BF41F0004130BDF8
:1042300014F580043CBF01F5801130BD01F000454C
:1042400045F0FE4141F470014FF0000030BD7FEABF
:10425000645C1ABF194610467FEA655C1CBF0B46BA
:10426000024650EA013406BF52EA033591EA030FD1
:1042700041F4002130BD00BF90F0000F04BF0021C9
:10428000704730B54FF4806404F132044FF00005FC
:104290004FF0000150E700BF90F0000F04BF002175
:1042A000704730B54FF4806404F1320410F00045DB
:1042B00048BF40424FF000013EE700BF42004FEAD6
:1042C000E2014FEA31014FEA02701FBF12F07F4353
:1042D00093F07F4F81F06051704732F07F4208BF0A
:1042E000704793F07F4F04BF41F40021704730B511
:1042F0004FF4607401F0004521F000411CE700BF5D
:1043000050EA010208BF704730B54FF000050AE0DF
:1043100050EA010208BF704730B511F0004502D5E0
:10432000404261EB41014FF4806404F132045FEAE2
:10433000915C3FF4D8AE4FF003025FEADC0C18BF8B
:1043400003325FEADC0C18BF033202EBDC02C2F17D
:10435000200300FA03FC20FA02F001FA03FE40EA0F
:104360000E0021FA02F11444BDE600BF70B54FF013
:10437000FF0C4CF4E06C1CEA11541DBF1CEA1355F1
:1043800094EA0C0F95EA0C0F00F0DEF82C4481EA59
:10439000030621EA4C5123EA4C5350EA013518BF79
:1043A00052EA033541F4801143F4801338D0A0FB66
:1043B00002CE4FF00005E1FB02E506F00042E0FB13
:1043C00003E54FF00006E1FB03569CF0000F18BF19
:1043D0004EF0010EA4F1FF04B6F5007F64F54074C1
:1043E00004D25FEA4E0E6D4146EB060642EAC62154
:1043F00041EA55514FEAC52040EA5E504FEACE2EC1
:10440000B4F1FD0C88BFBCF5E06F1ED8BEF1004FC3
:1044100008BF5FEA500E50F1000041EB045170BD3F
:1044200006F0004646EA010140EA020081EA030183
:10443000B4EB5C04C2BFD4EB0C0541EA045170BD7F
:1044400041F480114FF0000E013C00F3AB8014F1F9
:10445000360FDEBF002001F0004170BDC4F1000442
:10446000203C35DA0C341BDC04F11404C4F12005C3
:1044700000FA05F320FA04F001FA05F240EA02001E
:1044800001F0004221F0004110EBD37021FA04F654
:1044900042EB06015EEA430E08BF20EAD37070BD0E
:1044A000C4F10C04C4F1200500FA04F320FA05F06D
:1044B00001FA04F240EA020001F0004110EBD3706F
:1044C00041F100015EEA430E08BF20EAD37070BDDF
:1044D000C4F1200500FA05F24EEA020E20FA04F3B8
:1044E00001FA05F243EA020321FA04F001F0004167
:1044F00021FA04F220EA020000EBD3705EEA430ED8
:1045000008BF20EAD37070BD94F0000F0FD101F006
:104510000046400041EB010111F4801F08BF013C3F
:10452000F7D041EA060195F0000F18BF704703F07D
:104530000046520043EB030313F4801F08BF013D04
:10454000F7D043EA0603704794EA0C0F0CEA1355C0
:1045500018BF95EA0C0F0CD050EA410618BF52EA7A
:104560004306D1D181EA030101F000414FF0000080
:1045700070BD50EA410606BF1046194652EA43068E
:1045800019D094EA0C0F02D150EA013613D195EA02
:104590000C0F05D152EA03361CBF104619460AD14A
:1045A00081EA030101F0004141F0FE4141F4700154
:1045B0004FF0000070BD41F0FE4141F4780170BD44
:1045C00070B54FF0FF0C4CF4E06C1CEA11541DBFA9
:1045D0001CEA135594EA0C0F95EA0C0F00F0A7F8AB
:1045E000A4EB050481EA030E52EA03354FEA0131D8
:1045F00000F088804FEA03334FF0805545EA1313EB
:1046000043EA12634FEA022245EA111545EA1065B2
:104610004FEA00260EF000419D4208BF964244F149
:10462000FD0404F5407402D25B084FEA3202B61A68
:1046300065EB03055B084FEA32024FF480104FF43C
:10464000002CB6EB020E75EB030E22BFB61A7546B0
:1046500040EA0C005B084FEA3202B6EB020E75EB43
:10466000030E22BFB61A754640EA5C005B084FEAAB
:104670003202B6EB020E75EB030E22BFB61A754678
:1046800040EA9C005B084FEA3202B6EB020E75EB83
:10469000030E22BFB61A754640EADC0055EA060E44
:1046A00018D04FEA051545EA16754FEA06164FEA87
:1046B000C30343EA52734FEAC2025FEA1C1CC0D133
:1046C00011F4801F0BD141EA00014FF000004FF0C0
:1046D000004CB6E711F4801F04BF01430020B4F181
:1046E000FD0C88BFBCF5E06F3FF6AFAEB5EB030C39
:1046F00004BFB6EB020C5FEA500C50F1000041EB36
:10470000045170BD0EF0004E4EEA113114EB5C0402
:10471000C2BFD4EB0C0541EA045170BD41F48011D5
:104720004FF0000E013C90E645EA060E8DE60CEADD
:10473000135594EA0C0F08BF95EA0C0F3FF43BAFFA
:1047400094EA0C0F0AD150EA01347FF434AF95EAB1
:104750000C0F7FF425AF104619462CE795EA0C0F95
:1047600006D152EA03353FF4FDAE1046194622E762
:1047700050EA410618BF52EA43067FF4C5AE50EA3C
:1047800041047FF40DAF52EA43057FF4EBAE12E72C
:104790004FF0FF3C06E000BF4FF0010C02E000BF0D
:1047A0004FF0010C4DF804CD4FEA410C7FEA6C5CF0
:1047B0004FEA430C18BF7FEA6C5C1BD001B050EA93
:1047C000410C0CBF52EA430C91EA030F02BF90EA7E
:1047D000020F0020704710F1000F91EA030F58BF3D
:1047E000994208BF90422CBFD8176FEAE37040F09F
:1047F000010070474FEA410C7FEA6C5C02D150EA3D
:10480000013C07D14FEA430C7FEA6C5CD6D152EAF7
:10481000033CD3D05DF8040B704700BF84461046BC
:1048200062468C461946634600E000BF01B5FFF7BB
:10483000B7FF002848BF10F1000F01BD4DF808ED8B
:10484000FFF7F4FF0CBF012000205DF808FB00BF5C
:104850004DF808EDFFF7EAFF34BF012000205DF8B6
:1048600008FB00BF4DF808EDFFF7E0FF94BF012003
:1048700000205DF808FB00BF4DF808EDFFF7CEFF04
:1048800094BF012000205DF808FB00BF4DF808ED43
:10489000FFF7C4FF34BF012000205DF808FB00BF14
:1048A0004FEA410C7FEA6C5C02D150EA013C0AD12C
:1048B0004FEA430C7FEA6C5C02D152EA033C02D11E
:1048C0004FF0000070474FF0010070474FEA41027F
:1048D00012F5001215D211D56FF47873B3EB625252
:1048E00012D94FEAC12343F0004343EA505311F079
:1048F000004F23FA02F018BF404270474FF000000B
:10490000704750EA013005D111F0004008BF6FF048
:10491000004070474FF00000704700BF014B18681F
:10492000704700BF0C00002010B5054C237833B948
:10493000044B13B10448AFF300800123237010BD72
:104940003C030020000000008C6E000808B5034BFB
:104950001BB103490348AFF3008008BD000000000D
:10496000400300208C6E000880B500AF01F07AFB98
:1049700000F00FF800F058F800F0E0F800F0A3FAAB
:1049800000F036FB642001F0CFFB00F0ABFA00BF73
:10499000F6E780B590B000AF07F118032822002198
:1049A0001846FCF7DDFA3B1D00221A605A609A6037
:1049B000DA601A610123BB614FF48033FB6100238D
:1049C0003B620123BB6202237B634FF48033BB63F2
:1049D0004FF4E013FB6307F11803184601F0C8FB1E
:1049E0000346002B01D000F019F80F237B6002234F
:1049F000BB600023FB604FF480633B6100237B615D
:104A00003B1D0221184601F035FE0346002B01D064
:104A100000F004F800BF4037BD4680BD80B400AF51
:104A200072B600BF00BFFDE780B588B000AF07F1E8
:104A3000100300221A605A609A60DA603B4B9B694F
:104A40003A4A43F010039361384B9B6903F010031B
:104A5000FB60FB68354B9B69344A43F0200393614C
:104A6000324B9B6903F02003BB60BB682F4B9B69F3
:104A70002E4A43F0040393612C4B9B6903F004031B
:104A80007B607B68294B9B69284A43F0080393614C
:104A9000264B9B6903F008033B603B68012248F208
:104AA0001001234802F0DDF8012242F202412148C0
:104AB00002F0D7F84FF460433B6100237B61012390
:104AC000BB6107F1100319461B4801F02FFF48F2A4
:104AD00010033B6101237B610023BB610323FB6166
:104AE00007F110031946124801F020FF42F2024379
:104AF0003B6101237B610023BB610223FB6107F162
:104B0000100319460B4801F011FF4DF678233B6165
:104B100000237B610123BB6107F11003194605489F
:104B200001F004FF00BF2037BD4680BD00100240E9
:104B300000080140000C01400010014080B500AFAA
:104B4000174B184A1A60164B4FF482725A60144B76
:104B500000229A60124B0022DA60114B00221A6187
:104B60000F4B00225A610E4B4FF400729A610C4BAE
:104B70001022DA610A4B00221A62094B00225A62A3
:104B8000074B00229A62064B0A22DA62044800F0C0
:104B900082FF0346002B01D0FFF740FF00BF80BD1E
:104BA000580300200030014080B588B000AF786025
:104BB00007F1100300221A605A609A60DA607B687D
:104BC0001B681B4A93422FD11A4B9B69194A43F425
:104BD00080539361174B9B6903F48053FB60FB6820
:104BE000144B9B69134A43F004039361114B9B6977
:104BF00003F00403BB60BB68A0233B6102237B611D
:104C00000323FB6107F1100319460B4801F08EFEE8
:104C100040233B6100237B610123BB6107F110034B
:104C20001946054801F082FE00BF2037BD4680BD11
:104C300000300140001002400008014080B400AF85
:104C400000BFFDE780B400AF00BFFDE780B400AF58
:104C500000BFFDE780B400AF00BFFDE780B400AF48
:104C600000BFFDE780B400AF00BFBD4680BC704709
:104C700080B400AF00BFBD4680BC704780B400AFB9
:104C800000BFBD4680BC704780B500AF01F030FA70
:104C900000BF80BD80B485B000AF154B9B69144A3E
:104CA00043F001039361124B9B6903F00103BB6066
:104CB000BB680F4BDB690E4A43F08053D3610C4B4A
:104CC000DB6903F080537B607B680A4B5B68FB60A9
:104CD000FB6823F0E063FB60FB6843F00073FB605C
:104CE000044AFB68536000BF1437BD4680BC704760
:104CF000001002400000014080B586B000AF78602F
:104D0000144A154BD31A7B617B693B61134B1B68BB
:104D1000002B02D1114B124A1A60104B1A687B68A3
:104D200013443A699A4207D2FFF7F8FD03460C2272
:104D30001A604FF0FF3309E0084B1B68FB60074B1C
:104D40001A687B681344054A1360FB6818461837D5
:104D5000BD4680BD0050002000040000B0030020CC
:104D6000B804002080B400AF01231846BD4680BCC3
:104D7000704780B582B000AF78603960FFF7CEFD34
:104D8000034616221A604FF0FF3318460837BD4617
:104D900080BD80B582B000AF78604FF0FF31786899
:104DA000FFF7E7FF00BFFDE780B586B000AFF86012
:104DB000B9607A6000237B610AE0AFF300800146AE
:104DC000BB685A1CBA60CAB21A707B6901337B6136
:104DD0007A697B689A42F0DB7B6818461837BD46D3
:104DE00080BD80B586B000AFF860B9607A600023FE
:104DF0007B6109E0BB685A1CBA601B781846AFF3A8
:104E000000807B6901337B617A697B689A42F1DBC0
:104E10007B6818461837BD4680BD80B483B000AFAC
:104E200078604FF0FF3318460C37BD4680BC7047A2
:104E300080B483B000AF786039603B684FF40052B3
:104E40005A60002318460C37BD4680BC704780B4BA
:104E500083B000AF7860012318460C37BD4680BC94
:104E6000704780B485B000AFF860B9607A60002305
:104E700018461437BD4680BC7047000000F005FEA0
:104E80000B480C490C4A002302E0D458C4500433A8
:104E9000C4188C42F9D3094A094C002301E013607D
:104EA0000432A242FBD3FCF709F9FFF75DFD70471E
:104EB00000000020D401002074720008D4010020FA
:104EC000B8040020FEE780B500AF00F041FA00F022
:104ED0000BFB00F0A3FB00F0B9FD642001F024F906
:104EE00000BF80BD80B582B000AF0023FB711FE022
:104EF000FB79184600F060FB0346012B15D1022117
:104F0000012000F0A9F90221002000F071FA6420CC
:104F100001F00AF90221012000F09EF9022100208F
:104F200000F066FA322001F0FFF8FB790133FB71E3
:104F3000FB790B2BDCD900BF00BF0837BD4680BD15
:104F400080B487B000AF78600023FB757B68FB609E
:104F500000233B6109E03B69FA6813441A78FB7D42
:104F60005340FB753B6901333B613B690C2BF2D924
:104F7000FB7D18461C37BD4680BC704780B582B0AB
:104F800000AF786039600E2200217868FBF7E8FFF7
:104F90007B684D221A707B6847225A707B685322C7
:104FA0009A703B681A887B68A3F803203B685A888C
:104FB0007B68A3F805203B689A887B68A3F80720E4
:104FC0003B68DA887B68A3F809203B685A7A7B68DB
:104FD000DA723B681A7A7B681A737868FFF7B0FF59
:104FE00003461A467B685A7300BF0837BD4680BD2A
:104FF00080B582B000AF264B40F242421A80244B6B
:105000001B88B3F57A7F224B9B88B3F57A7F204BC0
:10501000DB88B3F57A7F1E4B5B88B3F57A7F1C493A
:105020001C48FFF7ABFF1B4800F06AFC0346FB710E
:10503000FB79002B0ED1164B01229A72144B0022E1
:10504000DA720221002000F007F90021012000F0AF
:1050500003F919E00E4B00229A720D4BDB7A0133F3
:10506000DAB20B4BDA720A4BDB7A322B04D900F03E
:1050700083FC074B0022DA720021002000F0ECF8DC
:105080000221012000F0E8F800BF0837BD4680BDCE
:10509000B4030020C003002080B489B000AF786062
:1050A0000B46FB70FB78002B54D07B682C4A934254
:1050B0000CD12C4B9B692B4A43F004039361294B81
:1050C0009B6903F00403FB61FB6944E07B68264AAB
:1050D00093420CD1234B9B69224A43F0080393610E
:1050E000204B9B6903F00803BB61BB6933E07B681D
:1050F0001E4A93420CD11B4B9B691A4A43F0100382
:105100009361184B9B6903F010037B617B6922E07C
:105110007B68174A93420CD1124B9B69114A43F0AA
:10512000200393610F4B9B6903F020033B613B69B4
:1051300011E07B680F4A93420DD10A4B9B69094AE3
:1051400043F040039361074B9B6903F04003FB600E
:10515000FB6800E000BF2437BD4680BC704700BF3D
:105160000008014000100240000C01400010014006
:10517000001401400018014080B586B000AF78608F
:105180000B467B8013467B7007F1080300221A60F0
:105190005A609A60DA6001217868FFF77DFF7B88AA
:1051A000BB600123FB6000233B617B787B6107F1DF
:1051B00008031946786801F0B9FB00BF1837BD46EF
:1051C00080BD80B588B000AFF8600B467A607B8107
:1051D00007F1100300221A605A609A60DA60012118
:1051E000F868FFF759FF7B893B617B687B617B68CF
:1051F000002B01D10123BB6107F110031946F868A8
:1052000001F094FB00BF2037BD4680BD80B584B05F
:1052100000AF0346FB71FA7913465B0013449B0011
:105220000C4A1344FB60FB681A7AFB689B799A422C
:105230000CBF01230023DBB2FB72FB681868FB681C
:105240009B88FA7A194601F00CFD00BF1037BD4665
:1052500080BD00BFD003002080B582B000AF034600
:105260000A46FB711346BB71FB79012B3FD8BB7912
:10527000022B2DD1FA79204913465B0013449B0081
:105280000B441868FA791C4913465B0013449B00D1
:105290000B4404331B88194601F0FBFCFA791649CC
:1052A00013465B0013449B000B4408331B78012B0F
:1052B00014BF01230023DBB2FA7918460E491346C6
:1052C0005B0013449B000B44083302461A700FE046
:1052D000FA79094913465B0013449B000B440833D9
:1052E000BA791A70FB791846FFF790FF00E000BF0B
:1052F0000837BD4680BD00BFD003002080B582B016
:1053000000AF78600B46FB70FB78012B19D8FA7858
:105310000E4913465B0013449B000B447A6892E8E5
:10532000030083E803007B6818687B689B8802227F
:105330001946FFF721FFFB7800211846FFF78CFF85
:1053400000E000BF0837BD4680BD00BFD00300208D
:1053500080B582B000AF0D4B3B600223BB800123C0
:10536000BB713B4600211846FFF7C8FF074B3B6067
:105370004FF40053BB800123BB713B46012118460B
:10538000FFF7BCFF00BF0837BD4680BD000C0140E1
:1053900080B584B000AF0346FB71FA7913465B0019
:1053A00013449B00114A1344BB60BB681B7A012B5A
:1053B00008D1BB689B79012B0CBF01230023DBB212
:1053C000FB7307E0BB689B79012B14BF012300230B
:1053D000DBB2FB73BB681868BB689B88FA7B194615
:1053E00001F03FFC00BF1037BD4680BDE803002040
:1053F00080B582B000AF03460A46FB711346BB710D
:10540000FB79002B3FD1BB79022B2DD1FA792049B2
:1054100013465B0013449B000B441868FA791C493F
:1054200013465B0013449B000B4404331B8819464E
:1054300001F02FFCFA79164913465B0013449B00D8
:105440000B4408331B78012B14BF01230023DBB26C
:10545000FA7918460E4913465B0013449B000B442F
:10546000083302461A700FE0FA79094913465B00C7
:1054700013449B000B440833BA791A70FB79184621
:10548000FFF786FF00E000BF0837BD4680BD00BFC4
:10549000E803002080B582B000AF78600B46FB7057
:1054A000FB78002B19D1FA780E4913465B001344A0
:1054B0009B000B447A6892E8030083E803007B6852
:1054C00018687B689B8802221946FFF755FEFB7817
:1054D00000211846FFF78CFF00E000BF0837BD46EB
:1054E00080BD00BFE803002080B582B000AF084B4C
:1054F0003B604FF48063BB800023BB713B460021BF
:105500001846FFF7C7FF00BF0837BD4680BD00BF84
:10551000000C014080B584B000AF0346FB71FB79FD
:105520001B010C4A1344FB60FB681A68FB689B88EC
:105530001946104601F07EFB0346FB72FB689B791F
:10554000FA7A9A420CBF01230023DBB218461037C7
:10555000BD4680BDF403002080B582B000AF786006
:105560000B46FB70FB780B2B1FD8FB78114A1B01F5
:1055700013447A6892E8030083E803007B681868A4
:105580007B689B8800221946FFF71BFEFB78094ABF
:105590001B011344083300221A70FB78054A1B01D3
:1055A00013440C3300221A6000E000BF0837BD46E8
:1055B00080BD00BFF403002080B586B000AF034675
:1055C000FB71FB790B2B01D9002320E0FB791B0138
:1055D000114A13443B61FB791846FFF79BFF0346D2
:1055E000FB730023FB75FB7B012B0CD13B691B7A02
:1055F000002B08D1FB791846FFF78CFF0346012BDF
:1056000001D10123FB753B69FA7B1A72FB7D1846B9
:105610001837BD4680BD00BFF403002080B582B0BE
:1056200000AF544B3B604FF48043BB800023BB7101
:105630000023FB713B4600211846FFF78DFF4D4BC1
:105640003B604FF40043BB800023BB710023FB7120
:105650003B4601211846FFF77FFF464B3B6008237E
:10566000BB800023BB710023FB713B46022118461F
:10567000FFF772FF3F4B3B602023BB800023BB71D1
:105680000023FB713B4603211846FFF765FF394BAA
:105690003B604023BB800023BB710023FB713B4672
:1056A00004211846FFF758FF324B3B601023BB80A4
:1056B0000023BB710023FB713B4605211846FFF711
:1056C0004BFF2D4B3B604FF40053BB800023BB715D
:1056D0000023FB713B4606211846FFF73DFF254B93
:1056E0003B604FF40063BB800023BB710023FB7160
:1056F0003B4607211846FFF72FFF1F4B3B604FF437
:105700008043BB800023BB710023FB713B46082113
:105710001846FFF721FF184B3B604FF40043BB8056
:105720000023BB710023FB713B4609211846FFF79C
:1057300013FF104B3B604FF48053BB800023BB71C1
:105740000023FB713B460A211846FFF705FF094B72
:105750003B604FF40073BB800023BB710023FB71DF
:105760003B460B211846FFF7F7FE00BF0837BD4642
:1057700080BD00BF000C01400010014080B586B024
:1057800002AF0346FB710023FB7307F10F02F91D03
:105790000A2300930123064800F001FA0346002B78
:1057A00001D0FF2300E0FB7B18461037BD4680BDCB
:1057B0005803002080B584B000AF03460A46FB7151
:1057C0001346BB71002210210B4801F04AFAFB7905
:1057D0001846FFF7D3FF0346FB73BB791846FFF764
:1057E000CDFF01221021044801F03BFAFB7B184653
:1057F0001037BD4680BD00BF0008014080B584B0B1
:1058000000AF0346FB71002210210B4801F029FA7A
:10581000FB791846FFF7B2FFFF20FFF7AFFF034603
:10582000FB7301221021044801F01BFAFB7B184690
:105830001037BD4680BD00BF0008014090B585B05F
:1058400000AF03463960FB711346BB710022102183
:10585000124801F006FAFB791846FFF78FFF03465E
:10586000BB730023FB730AE0FB7B3A68D418FF206C
:10587000FFF784FF03462370FB7B0133FB73FA7B46
:10588000BB799A42F0D301221021044801F0E9F9D2
:10589000BB7B18461437BD4690BD00BF00080140D1
:1058A00080B584B000AF03463960FB711346BB710D
:1058B00000221021114801F0D4F9FB791846FFF7B6
:1058C0005DFF0346BB730023FB7309E03B685A1C72
:1058D0003A601B781846FFF751FFFB7B0133FB73DF
:1058E000FA7BBB799A42F1D301221021034801F0DF
:1058F000B8F9BB7B18461037BD4680BD0008014093
:1059000080B584B000AF786000224FF400411948A0
:1059100001F0A7F90E227968A020FFF7C1FF01224C
:105920004FF40041134801F09CF90720FFF766FF90
:105930000346FB73FB7B03F03003002BF5D0002202
:105940004FF400410B4801F08CF9FB7B19462720EE
:10595000FFF730FFFB7B03F01003002B05D0FF2186
:10596000E120FFF727FF102300E00023184610373F
:10597000BD4680BD0008014080B500AF00224FF455
:105980000041164801F06DF9052215493020FFF756
:1059900087FF052213492A20FFF782FF01212120DA
:1059A000FFF708FF01212220FFF704FF1A2124201E
:1059B000FFF700FF58212520FFF7FCFE0F212620CE
:1059C000FFF7F8FE0E212020FFF7F4FE00224FF42F
:1059D0000041024801F045F900BF80BD00080140C8
:1059E000307200083872000880B584B000AF164AE3
:1059F00007F1080392E8030018600433197007F1F7
:105A00000803052219463020FFF74AFF3B460522CE
:105A100019461020FFF712FF0023FB730BE0FB7BFE
:105A200010333B4413F8103CA52B01D0012306E0B2
:105A3000FB7B0133FB73FB7B042BF0D9002318465F
:105A40001037BD4680BD00BFD470000880B500AFE0
:105A50000AE000210020FFF7FFFB01210120FFF7F2
:105A6000FBFB642000F060FBFFF7BEFF0346002B4A
:105A7000EFD1FFF781FF01210020FFF7EDFB0021AF
:105A80000120FFF7E9FB00BF80BD80B400AF00BF7D
:105A9000BD4680BC704780B582B000AF78607B683F
:105AA000002B01D1012376E07B685B6A002B08D1D3
:105AB0007B685B68B3F5827F09D07B680022DA617E
:105AC00005E07B6800221A617B6800225A617B68CE
:105AD00000229A627B6893F85130DBB2002B06D12A
