:020000040800F2
:1000000000500020713900083D37000843370008D0
:10001000493700084F370008553700080000000036
:100020000000000000000000000000005B37000836
:100030006737000800000000733700087F370008AA
:10004000B9390008B9390008B9390008B9390008C8
:10005000B9390008B9390008B9390008B9390008B8
:10006000B9390008B9390008B9390008B9390008A8
:10007000B9390008B9390008B9390008B939000898
:10008000B9390008B9390008B9390008B939000888
:10009000B9390008B9390008B9390008B939000878
:1000A000B9390008B9390008B9390008B939000868
:1000B000B9390008B9390008B9390008B939000858
:1000C000B9390008B9390008B9390008B939000848
:1000D000B9390008B9390008B9390008B939000838
:1000E000B9390008B9390008B93900080000000022
:1000F0000000000000000000000000000000000000
:0C01000000000000000000005FF808F1A3
:1001100010B5054C237833B9044B13B10448AFF341
:1001200000800123237010BDDC01002000000000CE
:100130000457000808B5034B1BB103490348AFF34C
:10014000008008BD00000000E00100200457000806
:10015000034613F8012B002AFBD1181A0138704707
:1001600081F0004102E000BF83F0004330B54FEA68
:1001700041044FEA430594EA050F08BF90EA020FD5
:100180001FBF54EA000C55EA020C7FEA645C7FEA68
:10019000655C00F0E2804FEA5454D4EB5555B8BF8B
:1001A0006D420CDD2C4480EA020281EA030382EAFC
:1001B000000083EA010180EA020281EA0303362D8E
:1001C00088BF30BD11F0004F4FEA01314FF4801C61
:1001D0004CEA113102D0404261EB410113F0004F73
:1001E0004FEA03334CEA133302D0524263EB43032A
:1001F00094EA050F00F0A780A4F10104D5F1200EC8
:100200000DDB02FA0EFC22FA05F2801841F1000122
:1002100003FA0EF2801843FA05F359410EE0A5F1F6
:1002200020050EF1200E012A03FA0EFC28BF4CF027
:10023000020C43FA05F3C01851EBE37101F00045DD
:1002400007D54FF0000EDCF1000C7EEB00006EEBEA
:100250000101B1F5801F1BD3B1F5001F0CD3490874
:100260005FEA30004FEA3C0C04F101044FEA4452CB
:1002700012F5800F80F09A80BCF1004F08BF5FEA52
:10028000500C50F1000041EB045141EA050130BD32
:100290005FEA4C0C404141EB0101013C28BFB1F544
:1002A000801FE9D291F0000F04BF01460020B1FA8F
:1002B00081F308BF2033A3F10B03B3F120020CDA62
:1002C0000C3208DD02F1140CC2F10C0201FA0CF040
:1002D00021FA02F10CE002F11402D8BFC2F1200CA5
:1002E00001FA02F120FA0CFCDCBF41EA0C0190405B
:1002F000E41AA2BF01EB0451294330BD6FEA0404A4
:100300001F3C1CDA0C340EDC04F11404C4F120028E
:1003100020FA04F001FA02F340EA030021FA04F3A0
:1003200045EA030130BDC4F10C04C4F1200220FAF7
:1003300002F001FA04F340EA0300294630BD21FA35
:1003400004F0294630BD94F0000F83F4801306BFFB
:1003500081F480110134013D4EE77FEA645C18BFEF
:100360007FEA655C29D094EA050F08BF90EA020F86
:1003700005D054EA000C04BF1946104630BD91EA7E
:10038000030F1EBF0021002030BD5FEA545C05D181
:100390004000494128BF41F0004130BD14F58004C0
:1003A0003CBF01F5801130BD01F0004545F0FE4134
:1003B00041F470014FF0000030BD7FEA645C1ABF69
:1003C000194610467FEA655C1CBF0B46024650EAA0
:1003D000013406BF52EA033591EA030F41F40021CC
:1003E00030BD00BF90F0000F04BF0021704730B552
:1003F0004FF4806404F132044FF000054FF0000127
:1004000050E700BF90F0000F04BF0021704730B5E7
:100410004FF4806404F1320410F0004548BF4042BC
:100420004FF000013EE700BF42004FEAE2014FEA11
:1004300031014FEA02701FBF12F07F4393F07F4FEC
:1004400081F06051704732F07F4208BF704793F0EF
:100450007F4F04BF41F40021704730B54FF4607402
:1004600001F0004521F000411CE700BF50EA010205
:1004700008BF704730B54FF000050AE050EA0102AE
:1004800008BF704730B511F0004502D5404261EB1E
:1004900041014FF4806404F132045FEA915C3FF45F
:1004A000D8AE4FF003025FEADC0C18BF03325FEAFC
:1004B000DC0C18BF033202EBDC02C2F1200300FAAD
:1004C00003FC20FA02F001FA03FE40EA0E0021FAD2
:1004D00002F11444BDE600BF70B54FF0FF0C4CF4C0
:1004E000E06C1CEA11541DBF1CEA135594EA0C0F72
:1004F00095EA0C0F00F0DEF82C4481EA030621EAAD
:100500004C5123EA4C5350EA013518BF52EA0335E7
:1005100041F4801143F4801338D0A0FB02CE4FF099
:100520000005E1FB02E506F00042E0FB03E54FF0C9
:100530000006E1FB03569CF0000F18BF4EF0010EC1
:10054000A4F1FF04B6F5007F64F5407404D25FEABD
:100550004E0E6D4146EB060642EAC62141EA555170
:100560004FEAC52040EA5E504FEACE2EB4F1FD0CB2
:1005700088BFBCF5E06F1ED8BEF1004F08BF5FEA30
:10058000500E50F1000041EB045170BD06F00046E2
:1005900046EA010140EA020081EA0301B4EB5C048F
:1005A000C2BFD4EB0C0541EA045170BD41F4801187
:1005B0004FF0000E013C00F3AB8014F1360FDEBFAC
:1005C000002001F0004170BDC4F10004203C35DA88
:1005D0000C341BDC04F11404C4F1200500FA05F30B
:1005E00020FA04F001FA05F240EA020001F00042AC
:1005F00021F0004110EBD37021FA04F642EB060122
:100600005EEA430E08BF20EAD37070BDC4F10C044B
:10061000C4F1200500FA04F320FA05F001FA04F20F
:1006200040EA020001F0004110EBD37041F10001FB
:100630005EEA430E08BF20EAD37070BDC4F1200506
:1006400000FA05F24EEA020E20FA04F301FA05F26E
:1006500043EA020321FA04F001F0004121FA04F216
:1006600020EA020000EBD3705EEA430E08BF20EAE6
:10067000D37070BD94F0000F0FD101F00046400020
:1006800041EB010111F4801F08BF013CF7D041EAA2
:10069000060195F0000F18BF704703F000465200A6
:1006A00043EB030313F4801F08BF013DF7D043EA77
:1006B0000603704794EA0C0F0CEA135518BF95EA2D
:1006C0000C0F0CD050EA410618BF52EA4306D1D1B4
:1006D00081EA030101F000414FF0000070BD50EAD3
:1006E000410606BF1046194652EA430619D094EA5D
:1006F0000C0F02D150EA013613D195EA0C0F05D147
:1007000052EA03361CBF104619460AD181EA03019A
:1007100001F0004141F0FE4141F470014FF0000052
:1007200070BD41F0FE4141F4780170BD70B54FF0ED
:10073000FF0C4CF4E06C1CEA11541DBF1CEA13556D
:1007400094EA0C0F95EA0C0F00F0A7F8A4EB05044F
:1007500081EA030E52EA03354FEA013100F0888046
:100760004FEA03334FF0805545EA131343EA12630F
:100770004FEA022245EA111545EA10654FEA0026C4
:100780000EF000419D4208BF964244F1FD0404F57D
:10079000407402D25B084FEA3202B61A65EB0305D9
:1007A0005B084FEA32024FF480104FF4002CB6EB96
:1007B000020E75EB030E22BFB61A754640EA0C0016
:1007C0005B084FEA3202B6EB020E75EB030E22BF56
:1007D000B61A754640EA5C005B084FEA3202B6EB97
:1007E000020E75EB030E22BFB61A754640EA9C0056
:1007F0005B084FEA3202B6EB020E75EB030E22BF26
:10080000B61A754640EADC0055EA060E18D04FEAE3
:10081000051545EA16754FEA06164FEAC30343EA83
:1008200052734FEAC2025FEA1C1CC0D111F4801F50
:100830000BD141EA00014FF000004FF0004CB6E749
:1008400011F4801F04BF01430020B4F1FD0C88BFE8
:10085000BCF5E06F3FF6AFAEB5EB030C04BFB6EBF3
:10086000020C5FEA500C50F1000041EB045170BDE6
:100870000EF0004E4EEA113114EB5C04C2BFD4EB13
:100880000C0541EA045170BD41F480114FF0000E97
:10089000013C90E645EA060E8DE60CEA135594EA13
:1008A0000C0F08BF95EA0C0F3FF43BAF94EA0C0F16
:1008B0000AD150EA01347FF434AF95EA0C0F7FF48B
:1008C00025AF104619462CE795EA0C0F06D152EADF
:1008D00003353FF4FDAE1046194622E750EA4106C3
:1008E00018BF52EA43067FF4C5AE50EA41047FF4D4
:1008F0000DAF52EA43057FF4EBAE12E74FF0FF3C39
:1009000006E000BF4FF0010C02E000BF4FF0010C09
:100910004DF804CD4FEA410C7FEA6C5C4FEA430C82
:1009200018BF7FEA6C5C1BD001B050EA410C0CBFD1
:1009300052EA430C91EA030F02BF90EA020F002033
:10094000704710F1000F91EA030F58BF994208BF9A
:1009500090422CBFD8176FEAE37040F00100704757
:100960004FEA410C7FEA6C5C02D150EA013C07D1AE
:100970004FEA430C7FEA6C5CD6D152EA033CD3D0F9
:100980005DF8040B704700BF8446104662468C46F3
:100990001946634600E000BF01B5FFF7B7FF002826
:1009A00048BF10F1000F01BD4DF808EDFFF7F4FF4F
:1009B0000CBF012000205DF808FB00BF4DF808EDDA
:1009C000FFF7EAFF34BF012000205DF808FB00BFFD
:1009D0004DF808EDFFF7E0FF94BF012000205DF81F
:1009E00008FB00BF4DF808EDFFF7CEFF94BF0120D4
:1009F00000205DF808FB00BF4DF808EDFFF7C4FFCD
:100A000034BF012000205DF808FB00BF4FEA410C15
:100A10007FEA6C5C02D150EA013C0AD14FEA430CF8
:100A20007FEA6C5C02D152EA033C02D14FF0000035
:100A300070474FF0010070474FEA410212F5001273
:100A400015D211D56FF47873B3EB625212D94FEA15
:100A5000C12343F0004343EA505311F0004F23FAFF
:100A600002F018BF404270474FF00000704750EA54
:100A7000013005D111F0004008BF6FF00040704711
:100A80004FF00000704700BF70B500260C4D0D4CB4
:100A9000641BA410A64209D104F034FE00260A4DBE
:100AA0000A4C641BA410A64205D170BD55F8043B46
:100AB00098470136EEE755F8043B98470136F2E7D0
:100AC000785B0008785B0008785B00087C5B0008B6
:100AD00003460244934200D1704703F8011BF9E733
:100AE000002B2DE9F0471F46BBBF03F100431F4613
:100AF00000232D2388B01446129A109D1370149B66
:100B0000DDF84CA023F02008B8F1460F05D0B8F16D
:100B1000450F00D10135022300E0032307AA049208
:100B200006AACDE902A2CDE9003522463B4600F0F7
:100B3000C3FCB8F1470F064602D1119BDB0722D553
:100B4000B8F1460F06EB050910D13378302B0AD1E6
:100B50000022002320463946FFF726FF18B9C5F1C9
:100B60000105CAF80050DAF8003099440022002349
:100B700020463946FFF718FF08B1CDF81C90302207
:100B8000079B4B4507D33046079B159A9B1B136069
:100B900008B0BDE8F087591C07911A70F0E70346CA
:100BA000F7B5002903F8022BB6BF2D222B224942AC
:100BB000092942702BDD0DF10704A4460A2791FB99
:100BC000F7F60A46A64607FB1615632A05F1300517
:100BD000314604F1FF340EF8015CF0DC3031AEF147
:100BE000020504F8011C2946441C61450AD30DF195
:100BF0000902A2EB0E02654588BF00221344181AB1
:100C000003B0F0BD11F8012B04F8012FEDE73023FC
:100C100030318370C170031DF1E700002DE9F04F02
:100C200091B00C46DDF8688016461F46054601F077
:100C300031FA036818460993FFF78AFA00230E93E6
:100C4000D8F800300A90073323F0070303F10802B5
:100C500094F81890D4F800B0C8F80020D3E9002325
:100C6000C4E91223D4E9128A2AF000430B934FF00F
:100C7000FF3240469C4B0B99FFF7C8FE70BB4FF00C
:100C8000FF324046984B0B99FFF7A2FE30BB002283
:100C9000002340465146FFF791FE10B12D2384F802
:100CA0004330924B9248B9F1470F94BF9846804623
:100CB00003234FF0000A23612BF004032360334623
:100CC0002146284600970FAA00F0D4F9013040F0E1
:100CD00090804FF0FF3011B0BDE8F08F4246534690
:100CE00040465146FFF792FE48B1BAF1000FB8BF37
:100CF0002D238048B8BF84F843307F4BD3E7636827
:100D000009F0DF015A1C42D10623636000220692DB
:100D10000EAACDE904920DAA4BF4806303920DF163
:100D20003302CDE9013223606368424600932846CE
:100D300053460B91FFF7D4FE0B99804647290D9936
:100D400008D1C81C02DB6368994240DDA9F10209A1
:100D50005FFA89F9B9F1650F1FD84A46013904F1E4
:100D600050000D91FFF71BFF0E9A82461318012ABF
:100D7000236102DC2268D20701D5013323619DF88B
:100D80003330002B9BD02D2384F8433097E747293D
:100D9000BCD1002BBAD10123B7E7B9F1660F18D146
:100DA000002963680BDD216113B92268D00702D5E1
:100DB00001330B4423614FF0000AA165DFE713B94B
:100DC0002268D20701D50233F4E70123F2E74FF09E
:100DD00067090E9B994205DB23682161D807EAD594
:100DE0004B1CE7E70029CCBF0122C1F102021344EA
:100DF000E0E723685A0507D423694246314628466E
:100E0000B84701302BD164E7B9F1650F40F2DD80BE
:100E1000D4E9120100220023FFF7C6FD002833D0D9
:100E2000012331462846354AB84701303FF451AFD7
:100E3000DDE90D239A4202DB2368D8070FD5DDE9EF
:100E4000092331462846B84701303FF442AF4FF0FE
:100E5000000804F11A090E9B013B434509DC236895
:100E60009B0700F10281E0680F9B9842B8BF1846CB
:100E700031E701234A4631462846B84701303FF45E
:100E800028AF08F10108E6E70D9B002B38DC0123B1
:100E900031462846194AB84701303FF41AAFDDE918
:100EA0000D23134302D12368D907D8D5DDE90923DF
:100EB00031462846B84701303FF40BAF4FF00009E8
:100EC00004F11A0A0D9B5B424B4501DC0E9B94E733
:100ED0000123524631462846B84701303FF4F9AE67
:100EE00009F10109EEE700BFFFFFEF7F2C57000873
:100EF0003057000838570008345700083C5700089E
:100F00000E9AA36D9A42A8BF1A46002A914637DC72
:100F10004FF0000B29EAE97904F11A02D4F858A03D
:100F2000AAEB09035B4533DCDDE90D239A423BDB89
:100F30002368DA0738D40E9B0D99A3EB0A02A3EBC2
:100F400001099145A8BF9146B9F1000F34DC4FF07B
:100F5000000829EAE97904F11A0ADDE90D239B1A50
:100F6000A3EB090343457FF77AAF0123524631468D
:100F70002846B84701303FF4ACAE08F10108ECE771
:100F80001346314642462846B8470130C0D1A0E654
:100F90000123314628460B92B84701303FF499AE01
:100FA0000B9A0BF1010BB9E73146DDE9092328461D
:100FB000B8470130BFD18CE64B463146284608EB96
:100FC0000A02B8470130C2D183E60E9A012A01DC39
:100FD000DB0737D50123424631462846B847013062
:100FE0003FF477AEDDE9092331462846B8470130A2
:100FF0003FF46FAED4E9120100220023FFF7D4FCC6
:10100000D8B90E9B08F10102013B31462846B8478A
:1010100001300ED15DE601234A4631462846B847E5
:1010200001303FF456AE08F101080E9B013B4345E9
:10103000F1DC534604F15002E0E64FF0000804F101
:101040001A09F2E701234246DFE701234A46314607
:101050002846B84701303FF43CAE08F10108E36888
:101060000F995B1A4345F0DCFDE64FF0000804F1F0
:101070001909F4E72DE9F047164699468A680B6985
:1010800007469342B8BF1346336091F843200C469D
:10109000DDF820800AB1013333602368990642BF2E
:1010A000336802333360256815F0060506D104F174
:1010B000190AE36832689B1AAB4228DC94F8432093
:1010C000131E226818BF012392062DD449463846C4
:1010D00004F14302C047013020D02368E56803F0E3
:1010E0000603042B18BF002532684FF00006A368E2
:1010F00008BFAD1A226908BF25EAE5759342C4BF4F
:101100009B1AED181A34B5421AD1002008E00123C9
:10111000524649463846C047013003D14FF0FF30B0
:10112000BDE8F0870135C4E73020E11881F84300BD
:101130005A1C94F845102244023382F84310C5E744
:101140000123224649463846C0470130E6D00136E1
:10115000D9E700002DE9FF470F7E9146782F8046A2
:101160000C469A460C9D01F1430207D8622F0AD81B
:10117000002F00F0D980582F00F0A48004F1420520
:1011800084F842703AE0A7F16303152BF6D801A169
:1011900051F823F0ED110008011200087D1100083C
:1011A0007D1100087D1100087D1100080112000862
:1011B0007D1100087D1100087D1100087D110008D7
:1011C0000F13000831120008F11200087D11000809
:1011D0007D110008311300087D110008311200084C
:1011E0007D1100087D110008F91200082B681A1DF6
:1011F0001B682A6004F1420584F842300123A4E010
:1012000020682968060601F104030AD50E682B60E0
:10121000002E03DA2D23764284F843300A235E48F9
:1012200019E00E6810F0400F2B6018BF36B2EFE7E0
:101230002B682068191D2960010601D51E6802E08F
:101240004606FBD51E886F2F0CBF08230A23524881
:10125000002184F843106568002DA8BF2168A560AF
:10126000A4BF21F0040121600EB9002D4DD0154618
:10127000B6FBF3F103FB1167C75D05F8017D374647
:10128000BB420E46F4D9082B0BD12368DE0708D5E4
:10129000236961689942DEBF302305F8013C05F1FE
:1012A000FF35521B22614B4621464046CDF800A037
:1012B00003AAFFF7DFFE01304CD14FF0FF3004B03E
:1012C000BDE8F087344881F845702968236851F8F3
:1012D000046B29601D0614D5DF0744BF43F02003CB
:1012E00023601EB9236823F0200323601023AFE797
:1012F000236843F0200323607823284884F845308E
:10130000E3E7590648BFB6B2E6E71546BBE72B68E8
:101310002668181D6169286035061B6801D51960AB
:1013200002E07006FBD51980002315462361BAE759
:101330002B6800211A1D2A601D686268284600F08B
:10134000B5FE08B1401B606063682361002384F828
:101350004330A8E72A46494640462369D047013032
:10136000ABD023689B0713D4E068039B9842B8BFB7
:101370001846A4E70123324649464046D04701308B
:101380009BD00135E36803995B1AAB42F2DCEBE7D3
:10139000002504F11906F5E73E5700084F570008ED
:1013A0002DE9F74F03690C690746A342C0F282801A
:1013B000013C00F1140501F1140805EB84030193CD
:1013C00058F8243055F8242001339A42B2FBF3F642
:1013D0004FEA840B08EB840931D34FF0000E4046EE
:1013E000AC46F24650F8042B93B206FB03E3120C12
:1013F0004FEA134E9BB206FB02E2AAEB0303DCF8B2
:1014000000A04FEA124E1FFA8AFA5344DCF800A0FB
:1014100092B2C2EB1A4202EB23429BB243EA02436E
:1014200081454FEA224A4CF8043BDBD255F80B3099
:101430002BB9019B043B9D421A462FD33C61384691
:1014400001F0CEF8002825DB28464FF0000C0136CD
:1014500058F8041BD0F800E08BB2ACEB03031FFA82
:101460008EF213440A0CC2EB1E4202EB23429BB2E3
:1014700043EA0243C1454FEA224C40F8043BE7D21D
:1014800055F8242005EB840322B9043B9D421A46FB
:101490000AD33C61304603B0BDE8F08F1268043BCC
:1014A000002ACBD1013CC6E71268043B002AF0D1E8
:1014B000013CEBE70020EEE72DE9F04F16461F4612
:1014C000446A99B00546CDE90467DDF8948074B9A3
:1014D000102000F0E3FD0246686220B9EA21A84B23
:1014E000A84801F041FAC0E901440460C4606B6A95
:1014F000196851B15A68012393404A608B602846AD
:1015000000F030FE00226B6A1A603B1EAFBF002362
:10151000012223F000430593A8BFC8F80030DDF88E
:101520001490994BB8BFC8F8002033EA090319D1C9
:1015300042F20F73249A1360C9F31303334300F08C
:101540007F85269B53B9914B22E0914B039308333F
:10155000269A1360039819B0BDE8F08F8B4B039364
:101560000333F5E7DDE90434CDE90C34DDE90C01A2
:1015700000220023FFF718FA804658B10123249A6D
:101580001360269B002B00F0588582481860431E8C
:101590000393DFE716AB019317AB00932846DDE911
:1015A0000C2301F0C5F8C9F30A548346002C7FD000
:1015B000DDE90C010D9BA4F2FF34C3F3130343F0E8
:1015C0007F5141F44011CDF84C800022724BFEF760
:1015D000CBFD65A3D3E90023FEF77EFF64A3D3E927
:1015E0000023FEF7C3FD064620460F46FEF70AFF1E
:1015F00061A3D3E90023FEF76FFF02460B46304696
:101600003946FEF7B3FD06460F46FFF715FA0022EE
:101610008246002330463946FFF7D0F948B150469C
:10162000FEF7F0FE32463B46FFF7BEF908B90AF175
:10163000FF3ABAF1160F58D8DDE90C01574B03EB0E
:10164000CA03D3E90023FFF7B9F900284FD00023DC
:101650000AF1FF3A0F93169B1C1B631E099349BFA7
:10166000C4F1010300230693002354BF069309939A
:10167000BAF1000F3DDB099BCDF838A05344099324
:1016800000230A93229B092B00F28C80052BC4BFF8
:10169000043B2293229BC8BF0024A3F10203D8BFBE
:1016A0000124032B00F28A80DFE803F02D4F4D5B0D
:1016B000DDE916431C4404F23243202BC3BFC3F1BF
:1016C000400304F2124009FA03F3C3F12003C6BF3A
:1016D00026FA00F0184306FA03F0FEF783FE012312
:1016E000A1F1F871013C13936FE70123B2E70F906A
:1016F000B1E7069BA3EB0A030693CAF100030A9322
:1017000000230E93BEE700230B93239B002B58DC92
:101710004FF001094B46CDF82090CDF88C90002277
:10172000686A4260042202F114069E4241684ED962
:10173000284600F0D7FC039000284CD102464FF415
:10174000D571174BCCE60123DEE700230B93239BD7
:101750000AEB030909F10103012B0893B8BF012328
:10176000DDE70123F2E700BF61436F63A787D23F44
:10177000B3C8608B288AC63FFB799F501344D33F80
:101780006D570008845700080000F07F6957000873
:10179000605700083D5700080000F83FB85800089F
:1017A00001580008012400230B9422934FF0FF39C5
:1017B00000221223CDF820902392B0E701230B934F
:1017C000F4E7DDF88C904B46CDF82090A7E7013187
:1017D00041605200A7E76B6A039A1A60089B0E2BC0
:1017E00000F2A880002C00F0A580BAF1000F34DDD3
:1017F0009A4A0AF00F0302EBC3031AF4807FD3E97D
:101800000034CDE910344FEA2A1416D0DDE90C017A
:10181000934B0327D3E90823FEF788FFCDE90401A2
:1018200004F00F048E4E54B9DDE91023DDE9040104
:10183000FEF77CFFCDE9040129E00227F2E7E1078A
:1018400008D5DDE91001D6E90023FEF745FECDE914
:101850001001013764100836E5E700F0A580DDE9E6
:101860000C01CAF100047D4B04F00F0203EBC2032C
:10187000D3E90023FEF730FE02270023CDE904015F
:10188000774E2411002C40F08480002BD2D10F9B86
:10189000002B00F08B80DDE90434CDE91034DDE964
:1018A000100100226F4BFFF789F800287ED0089BBB
:1018B000002B7BD0B9F1000F38DDDDE910010022EB
:1018C000694BFEF709FE4C46CDE904010AF1FF38E9
:1018D00001373846FEF796FDDDE90423FEF7FCFDEF
:1018E0000022624BFEF742FCA1F15076CDE91001D7
:1018F0001196002C5DD1DDE9040100225C4BFEF75E
:1019000033FC02460B46CDE904233346109AFFF719
:1019100073F8002840F09C82DDE90401109A06F17A
:101920000043FFF74BF8002840F09082DDE90C34CB
:10193000CDE90434179B002BC0F25281BAF10E0F8F
:1019400000F34E81454B03EBCA03D3E90034CDE9E4
:101950000634239B002B80F2DB80089B002B00F3D6
:10196000D78040F07282DDE906010022404BFEF78D
:10197000B3FDDDE90423FFF735F8089C264600286F
:1019800040F048823123039F0AF1010A07F8013B26
:1019900044E2E20705D5D6E90023FEF79DFD0123C9
:1019A0000137641008366DE7022770E7D046089CBF
:1019B0008FE70399294B214412910B9903EBC40340
:1019C000DDE9106753E90223002955D00020294999
:1019D000FEF7ACFE3B463246FEF7C6FBCDE91001F2
:1019E000039FDDE90401FFF727F80446FEF70AFD2F
:1019F00002460B46DDE90401FEF7B6FB02460B4644
:101A00003034CDE90423DDE9102307F8014BFEF75C
:101A1000D5FF002874D1DDE9042300201149FEF729
:101A2000A3FBDDE91023FEF7C9FF002840F0B780D3
:101A3000129B9F423FF47AAFDDE9100100220A4B6E
:101A4000FEF74AFD0022CDE91001DDE90401064B55
:101A5000FEF742FDCDE90401C3E700BFB858000816
:101A6000905800080000F03F0000244000001C4097
:101A7000000014400000E03F30463946FEF72CFDE0
:101A8000129BCDE91001039C1493DDE90401FEF7DC
:101A9000D3FF1590FEF7B6FC02460B46DDE90401C4
:101AA000FEF762FB159B0646303304F8013B129BA0
:101AB0000F469C424FF0000224D1DDE91001B04BEB
:101AC000FEF754FB02460B4630463946FEF794FFBC
:101AD000002863D1DDE910230020A949FEF744FB6B
:101AE00002460B4630463946FEF768FF00283FF4B1
:101AF0001DAF149F7B1E149317F8013C302BF8D0B8
:101B0000C2463BE09F4BFEF7E7FCCDE90401BCE792
:101B1000039FDDE90489DDE9062340464946FEF7D7
:101B200005FEFEF789FF0446FEF76CFCDDE906239F
:101B3000FEF7D2FC02460B4640464946FEF714FB30
:101B400004F1300607F8016B039EDDF820C0BE1BD0
:101B5000B44502460B4636D1FEF708FBDDE9062305
:101B600080468946FEF748FF58BBDDE9062340461C
:101B70004946FEF719FF08B1E10722D42846594625
:101B800000F0F0FA00233B70249B0AF1010018607A
:101B9000269B002B3FF4DEAC1F60DBE427463B4670
:101BA0001F4613F8012D392A07D1039A9A42F7D11B
:101BB0003022039908F101080A701A7801321A706C
:101BC0009EE7D046EBE700226E4BFEF785FC002235
:101BD000002380468946FEF7E7FE00289BD0CDE72C
:101BE0000B9A002A00F0D080229A012A00F3AE80DE
:101BF000139A002A00F0A68003F233430A9C069F42
:101C0000069A01211A440692099A28461A44099212
:101C100000F05EFB0646002F0CDD099B002B09DD62
:101C2000BB42A8BF3B46069AFF1AD21A0692099AEF
:101C3000D31A09930A9BF3B10B9B002B00F0A880E9
:101C4000002C10DD31462246284600F0FFFB5A46A4
:101C500001460646284600F051FB80465946284674
:101C600000F080FAC3460A9B1A1B04D05946284646
:101C700000F0ECFB83460121284600F029FB0E9B77
:101C80000446002B40F386801A460146284600F0A1
:101C9000DDFB229B0446012B7FDD4FF0000823690A
:101CA00004EB8303186900F0C5FAC0F12000099B1A
:101CB000184410F01F0000F09280C0F12003042BA4
:101CC00040F38A80C0F11C00069B0744034406933E
:101CD000099B03440993069B002B05DD59461A46D0
:101CE000284600F00DFC8346099B002B05DD2146AC
:101CF0001A46284600F004FC04460F9B002B70D0C7
:101D00002146584600F06CFC00286ADA0023594648
:101D10000A22284600F048FA0B9B83460AF1FF3A54
:101D2000002B00F09481314600230A22284600F05F
:101D30003BFAB9F1000F064600F39380229B022B79
:101D400057DC8EE0169BC3F1360357E7089B5C1EF9
:101D50000A9BA342B7BF0A9B1C1BE21A0E9BBEBF85
:101D60000A949B180E93089BB8BF0024002BBBBF9E
:101D7000069B089A069F9F1AACBF089B00233FE76B
:101D80000000E03F000024400A9C069F0B9E42E7B3
:101D90000A9A6BE7229B012B19DC049BBBB9059BBC
:101DA000C3F313039BB9059B23F000431B0D1B05D5
:101DB00083B14FF00108069B01330693099B013361
:101DC00009930E9B002B7FF46AAF01206FE74FF061
:101DD0000008F6E79846F4E73FF47DAF18461C305C
:101DE00072E7089B002B36DC229B022B33DDDDF8EB
:101DF0002090B9F1000F0DD121464B46052228460F
:101E000000F0D2F901460446584600F0E9FB0028EC
:101E10003FF7B8AD239B039F6FEA030A4FF000081A
:101E20002146284600F09EF9002E3FF4A7AEB8F1F7
:101E3000000F05D0B04503D04146284600F092F986
:101E40003146284600F08EF998E600242646E1E760
:101E5000C246264696E50B9BDDF82090002B00F04D
:101E6000FD80002F05DD31463A46284600F048FB4C
:101E70000646B8F1000F5CD02846716800F032F9D0
:101E8000074628B9024640F2EA217F4BFFF728BBFC
:101E9000326906F10C01023292000C3000F014F9A4
:101EA00001223946284600F02BFBB0460646039B2C
:101EB00001330893039B4B440A93049B03F00103F3
:101EC0000993089B2146013B58460493FFF768FAA3
:101ED000034641463033069058460B9300F080FB92
:101EE000324681462146284600F096FBC2680746E6
:101EF0000B9B02BB0146584600F072FB02460B9B4F
:101F000039462846CDE90B3200F02CF9229B0C9A79
:101F1000089F43EA0201099B0B430B9B0DD1392B10
:101F200029D0B9F1000F01DD069B3133049A1370FB
:101F300076E73046B9E70122E2E7B9F1000F06DBA8
:101F4000229941EA0909099959EA010120D1002A97
:101F5000ECDD594601222846089300F0D1FA2146CB
:101F6000834600F03DFB0028089B02DCDED1DA0747
:101F7000DCD5392BD8D13923049A13703B461F4640
:101F800017F8012C013B392A50D001321A7047E76B
:101F9000002A03DD392BEED00133C7E7089A0A99EE
:101FA00002F8013C8A422AD0594600230A222846D8
:101FB00000F0FAF8B04583464FF000034FF00A02F4
:101FC0004146284607D100F0EFF880460646089BB8
:101FD0000133089375E700F0E7F8314680460023A7
:101FE0000A22284600F0E0F80646F0E7B9F1000FB3
:101FF000CCBF4F4601274FF00008039A17445946BB
:1020000001222846089300F07BFA2146834600F01F
:10201000E7FA0028B2DC02D1089BDB07AED43B46CE
:102020001F4613F8012D302AFAD0F9E6039A9A4296
:10203000A5D131230AF1010A79E7144BFFF7A8BAB9
:10204000269B002B7FF481AA114BFFF7A1BAB9F1AF
:10205000000F03DC229B022B3FF7CBAE039F2146F0
:102060005846FFF79DF9039A00F1300307F8013B4A
:10207000BA1A9145BADD594600230A22284600F0D3
:1020800093F88346EBE700BF015800083C5700086F
:10209000605700080048704754010020024B014679
:1020A000186800F0F7BB00BF00000020034610B521
:1020B000C9B202449342184601D1002003E00478DB
:1020C00001338C42F6D110BD0A44914200F1FF3336
:1020D00000D1704710B511F8014B914203F8014F40
:1020E000F9D110BD70B5466A04460D4676B9102088
:1020F000FFF7D4FF0246606220B96621174B1848EB
:1021000000F032FCC0E901660660C660666AF368EA
:1021100083B1636ADB6853F82500B8B9012101FA7D
:1021200005F6721D2046920000F05EFB60B1C0E92A
:1021300001560EE021220421204600F055FB636A7F
:10214000F060DB68002BE4D1002070BD026843F82A
:1021500025200023C0E90333F7E700BF6D570008CF
:102160001258000870B5466A05460C4676B910202C
:10217000FFF794FF0246686220B98A21084B09489C
:1021800000F0F2FBC0E901660660C6603CB16B6A14
:102190006268DB6853F82210216043F8224070BD6A
:1021A0006D570008125800082DE9F04107460C460B
:1021B0001E4600200D6901F1140CDCF800300130DE
:1021C00099B202FB01611E0C0B0C02FB063389B2B3
:1021D00001EB034185424FEA13464CF8041BECDC4B
:1021E0000EB3A368AB4219DC616838460131FFF7D2
:1021F00079FF804628B90246B5210C4B0C4800F007
:10220000B3FB226904F10C01023292000C30FFF79B
:102210005BFF21463846FFF7A5FF444604EB8503E4
:1022200001355E6125612046BDE8F0810158000856
:1022300012580008020C12040346CAB90304102005
:1022400013F07F4F04BF1B02083013F0704F04BF20
:102250001B01043013F0404F04BF9B000230002BE1
:1022600005DB13F0804F00F1010008BF202070470C
:102270000020E5E70368024613F007000BD0D907FA
:1022800021D4980749BF5B089B08012013605CBFFD
:1022900002201360704799B209B910201B0CD9B203
:1022A00009B908301B0A190704BF1B090430990734
:1022B00004BF9B080230D90703D45B0800F101007A
:1022C00003D0136070470020704720207047000043
:1022D00010B50C460121FFF705FF024628B94FF45F
:1022E000A071044B044800F03FFB012344610361EB
:1022F00010BD00BF01580008125800082DE9F04F2A
:1023000091460A69D9F810300C469A42BEBF0B4676
:102310004C4699462769D9F810A0A368616807EB75
:102320000A06B34285B0B8BF0131FFF7DBFE30B912
:10233000024640F25D11434B434800F015FB00F1AB
:1023400014052B46002205EB8608434521D304F1F2
:10235000140303EB870709F1140303EB8A020292CB
:102360003A1B153A22F00302043204F115018F42A0
:1023700038BF04220192029A03939A420CD8002E8D
:1023800003DD58F8043D002B59D0066105B0BDE8C7
:10239000F08F43F8042BD8E7B3F800A0BAF1000F90
:1023A00023D0A9464FF0000C04F1140E5EF8042B64
:1023B000D9F800101FFA82FB89B20AFB0B116144A5
:1023C000D9F800C0120C4FEA1C4C0AFB02C202EB07
:1023D000114289B241EA024177454FEA124C49F86D
:1023E000041BE3D8019A45F802C0039A0433B2F8FB
:1023F0000290B9F1000F20D0AE464FF0000A2968D4
:1024000004F1140CBCF800B0BEF8022089B209FB3C
:102410000B22924441EA0A414EF8041B5CF8042B5B
:10242000BEF80010120C09FB0211674501EB1A41BE
:102430004FEA114AE6D8019AA95004359BE7013EBC
:102440009DE700BF01580008125800082DE9F84325
:10245000154612F0030206460F4607D0254C013AF6
:10246000002354F82220FFF79FFE0746AD103DD011
:10247000746A7CB91020FFF711FE0246706228B919
:102480004FF4D7711C4B1D4800F06EFAC0E90144AF
:102490000460C460D6F82480D8F808404CB940F2F3
:1024A00071213046FFF714FF00230446C8F80800E6
:1024B00003604FF00009EB070AD539462246304643
:1024C000FFF71CFF804639463046FFF74BFE474674
:1024D0006D100BD0206838B9224621463046FFF7F0
:1024E0000DFF2060C0F800900446E4E73846BDE8E0
:1024F000F88300BF805900086D5700081258000883
:102500002DE9F0470C46074691462369496803EBDD
:102510006218A3684FEA621A08F10106B3420BDBA6
:102520003846FFF7DFFD054648B9024640F2D911AB
:10253000294B2A4800F018FA01315B00EEE700232E
:1025400000F1140100F110021846534537DB2069F1
:102550002AEAEA7A04F1140319F01F0901EB8A014F
:1025600003EB80002FD08A464FF0000CC9F1200EFB
:102570001A6802FA09F242EA0C024AF8042B53F8EC
:10258000042B984222FA0EFCF2D8031B153B23F0D1
:102590000303043304F11502904238BF042341F8C9
:1025A00003C0BCF1000F01D008F10206013E38461D
:1025B00021462E61FFF7D6FD2846BDE8F08742F898
:1025C000040F0133C1E7043953F8042B984241F852
:1025D000042FF9D8EAE700BF015800081258000894
:1025E00003460A69006930B5801A0DD114331431DD
:1025F00003EB820401EB820154F8045D51F8042DD1
:10260000954202D004D3012030BDA342F4D3FBE7AE
:102610004FF0FF30F8E700002DE9F84F0D46074670
:10262000114628461446FFF7DBFF061E11D131463E
:102630003846FFF757FD024628B940F232213A4B9F
:102640003A4800F091F90123C0E904361046BDE88C
:10265000F88FA4BF23462C4638466168A6BF1D46A6
:1026600000260126FFF73EFD024618B94FF410710F
:102670002D4BE5E702F11408C2464FF0000C276924
:10268000C6602E6904F1140005F1140900EB870EF1
:1026900009EB8606103454F804BF59F8043B1FFABE
:1026A0008BF18C4499B21B0CACEB0101C3EB1B43C7
:1026B00003EB214389B24FEA234C4E4541EA0343E1
:1026C0004AF8043BE7D8731B153B23F00303153589
:1026D0000433AE4238BF0423184443441E46054623
:1026E00075450ED30EF10301091A21F003010338D9
:1026F000864538BF0021194451F8043D8BB117615C
:10270000A4E755F8048B1FFA88F161440C1404EB1C
:10271000184489B241EA04414FEA244C46F8041BAC
:10272000DEE7013FE8E700BF015800081258000843
:102730002DE9F3410121DDE9087690461D46FFF7BA
:10274000D1FC044630B9024640F20A31244B2548F8
:1027500000F00AF9C5F31303C5F30A552DBB019325
:10276000B8F1000326D068460093FFF783FD009977
:10277000F0B1019AC0F1200302FA03F30B43C24007
:1027800063610192019B002B14BF02210121A3610F
:102790002161C5B1A5F233450544C0F135003D6066
:1027A0003060204602B0BDE8F08143F48013D6E7E4
:1027B0006161E7E701A8FFF75DFD0121019B216150
:1027C00063612030E5E704EB8103A0F2324038601A
:1027D0001869FFF72FFDC0EB41113160E1E700BF41
:1027E000015800081258000838B502FB01F52946C7
:1027F00000F050F8044618B12A460021FEF768F9A7
:10280000204638BD38B50546002940D051F8043C73
:102810000C1F002BB8BFE41800F0E8F81C4A13683E
:1028200033B9636014602846BDE8384000F0E4B86E
:10283000A34208D9206821188B4201BF19685B6840
:1028400009182160EDE71A465B680BB1A342FAD97B
:1028500011685018A0420BD12068014450188342DF
:102860001160E0D118685B68014411605360DAE7D9
:1028700002D90C232B60D6E7206821188B4201BFB8
:1028800019685B680918216063605460CBE738BD44
:10289000F8010020F8B5CD1C25F0030508350C2DF6
:1028A00038BF0C25002D064601DBA94203D90C23B5
:1028B00033600020F8BD00F099F821490A681446F9
:1028C0009CB9204F3B6823B92146304600F03CF8C4
:1028D00038602946304600F037F8431C23D10C23DA
:1028E0003046336000F088F8E3E723685B1B17D4B9
:1028F0000B2B03D923601C44256004E06368A242CB
:102900000CBF0B605360304600F076F804F10B000A
:10291000231D20F00700C21ACCD01B1AA350C9E710
:1029200022466468CCE7C41C24F00304A042E3D030
:10293000211A304600F008F80130DDD1CFE700BFA2
:10294000F8010020FC01002038B50023054D0446A5
:1029500008462B6000F04CFF431C02D12B6803B1EA
:10296000236038BD000200201FB514461A46094BEB
:1029700005461B68D8684CB1074BCDE9013400917E
:102980002B46064900F00EF800F062FA044B1C4694
:10299000F3E700BF000000208C5900089959000897
:1029A000C75900080EB403B5014603AB054853F8F8
:1029B000042B0068019300F04DF802B05DF804EBC1
:1029C00003B070470000002082B001B901A942B1F4
:1029D0004BB113780B601278101E18BF012002B0A3
:1029E00070471046FBE76FF00100F8E7014800F080
:1029F000EBBB00BF04020020014800F0E6BB00BFB3
:102A000004020020936810B4013B002B936007DAA6
:102A10009469A34201DB0A2902D110BC00F04AB933
:102A20001368581C10601970084610BC7047F8B540
:102A300006460F461446D518AC4201D1002007E0E7
:102A40003A46304614F8011BFFF7DCFF431CF3D174
:102A5000F8BD00002DE9F04F0D4614469846064695
:102A60009DB018B183690BB900F010FB894B9D42F2
:102A70001BD175686B6ED90705D4AB899A0502D452
:102A8000A86D00F0A1FBAB891B0701D52B69EBB941
:102A90002946304600F06EF9C0B16B6EDC070ED5EA
:102AA0004FF0FF301DB0BDE8F08F7B4B9D4201D150
:102AB000B568DFE7794B9D4208BFF568DAE7AB8977
:102AC0009805EDD4A86D00F080FBE9E70023099399
:102AD00020238DF8293030234FF00109CDF80C80E8
:102AE000DFF8BC818DF82A3023469A4613F8012B73
:102AF0000AB1252AF9D1BAEB040B0BD05B4622466A
:102B000029463046FFF793FF013000F0AA80099A6A
:102B10005A4409929AF80030002B00F0A28000235A
:102B20004FF0FF32CDE905230AF1010A0493079320
:102B30008DF853301A935446052214F8011B584857
:102B4000FFF7B4FA049AD8B9D10644BF20238DF810
:102B50005330130744BF2B238DF853309AF80030BD
:102B60002A2B15D0544600204FF00A0C079A214614
:102B700011F8013B303B092B4ED9B0B1079214E05C
:102B8000A0EB080309FA03F31343A2460493D2E728
:102B9000039B191D1B680391002BBBBF5B4242F0D6
:102BA000020207930793B8BF049223782E2B0CD10F
:102BB00063782A2B35D1039B02341A1D1B680392BC
:102BC000002BB8BF4FF0FF330593DFF8D8A00322E6
:102BD00050462178FFF76AFA40B14023A0EB0A0083
:102BE00003FA00F0049B01340343049314F8011B1F
:102BF00006222D488DF82810FFF758FA00283FD0FC
:102C00002A4B1BBB039B073323F0070308330393B3
:102C1000099B3B44099367E70C4601200CFB0232F9
:102C2000A5E700234FF00A0C19460134059320460E
:102C300010F8012B303A092A03D9002BC5D0059191
:102C4000C3E7044601230CFB0121F0E703AB00932B
:102C50002A463046164B04A9FDF7E0FF0746781CCC
:102C6000D6D16B6ED90705D4AB899A0502D4A86D6D
:102C700000F0ABFAAB895B063FF512AF099811E79C
:102C800003AB00932A463046094B04A9FEF762FACB
:102C9000E4E700BF045B0008245B0008E45A000876
:102CA000D2590008D8590008DC5900081D0C00084A
:102CB0002F2A0008F8B50E461446054618B1836958
:102CC0000BB900F0E3F9214B9C422BD16C68A3694E
:102CD000A360A3891A072FD523696BB323692068E2
:102CE000F6B2C01A63693746834204DC214628469F
:102CF00000F038F930BBA3680130013BA3602368C2
:102D00005A1C22601E706369834204D0A389DB07CA
:102D100006D50A2E04D12146284600F023F988B9A9
:102D20003846F8BD0A4B9C4201D1AC68CFE7094B4D
:102D30009C4208BFEC68CAE72146284600F01AF812
:102D40000028CBD04FF0FF37EAE700BF045B000854
:102D5000245B0008E45A00080346084641B1FF2AF4
:102D600004D98A224FF0FF301A60704701200A70A0
:102D700070470000324B70B51D6806460C4625B101
:102D8000AB6913B9284600F081F92E4B9C420FD154
:102D90006C68A389B4F90C2019072CD4DD0611D472
:102DA0000923336042F040034FF0FF30A3813EE03F
:102DB000254B9C4201D1AC68EBE7244B9C4208BFF9
:102DC000EC68E6E7580712D5616B41B104F14403A2
:102DD000994202D03046FFF715FD00236363A389B3
:102DE00023F02403A3810023636023692360A38964
:102DF00043F00803A38123694BB9A38903F420732B
:102E0000B3F5007F03D02146304600F005FAA089D3
:102E1000B4F90C2010F001030AD00023A360636909
:102E20005B42A361236943B910F08000BAD170BD41
:102E3000810758BF6369A360F4E70020F7E700BF8C
:102E400000000020045B0008245B0008E45A00082E
:102E5000062008B500F048FA012000F016FD000039
:102E60008A89F8B5054610070C4657D44B68002BE5
:102E700004DC0B6C002B01DC0020F8BDE66A002EA0
:102E8000FAD0002312F480522F682B6032D0606D8C
:102E9000A3895A0705D56368C01A636B0BB1236C0D
:102EA000C01A00230246E66A2846216AB047431C3E
:102EB000A38906D129681D292CD8294ACA40D607DA
:102EC00028D5002262602269D904226004D5421C00
:102ED00001D12B6803B96065616B2F600029CBD0ED
:102EE00004F14403994202D02846FFF78BFC0020EE
:102EF0006063C2E7216A01232846B047411CC7D15D
:102F00002B68002BC4D01D2B01D0162B01D12F60B4
:102F1000B2E7A38943F04003A381AEE70F69002F16
:102F2000AAD0930718BF00230E6808BF4B69F61B91
:102F30000F608B60002E9FDD33463A462846216A9B
:102F4000D4F828C0E047002806DCA3894FF0FF3002
:102F500043F04003A38190E70744361AEAE700BF35
:102F60000100402038B50B6905460C4613B9002511
:102F7000284638BD18B183690BB900F087F8144BA7
:102F80009C421BD16C68B4F90C30002BEFD0626E00
:102F9000D00704D4990502D4A06D00F015F9284695
:102FA0002146FFF75DFF636E0546DA07E0D4A3898B
:102FB0009B05DDD4A06D00F008F9D9E7054B9C42D4
:102FC00001D1AC68DFE7044B9C4208BFEC68DAE74C
:102FD000045B0008245B0008E45A0008002310B5D5
:102FE0000446C0E90033C0E904338360818143664D
:102FF000C2818361194608225C30FDF769FD054BEB
:1030000024626362044BA362044BE362044B2363B8
:1030100010BD00BF21330008433300087B33000894
:103020009F330008014900F0AFB800BF652F0008CA
:10303000682270B54D1E55430E4605F17401FFF729
:1030400029FC044640B10021C0E900160C30A06004
:1030500005F16802FDF73CFD204670BD014800F017
:10306000B3B800BF05020020014800F0AEB800BFB1
:1030700005020020014800F0A7B800BF06020020AA
:10308000014800F0A2B800BF0602002010B50446B7
:10309000FFF7F0FFA3691BB1BDE81040FFF7F0BFD9
:1030A000C4E912332365134B134A1B68A262A3427F
:1030B00008BF0123204608BFA36100F01FF860602D
:1030C000204600F01BF8A060204600F017F8002210
:1030D0000421E0606068FFF781FF01220921A068F8
:1030E000FFF77CFF02221221E068FFF777FF012340
:1030F000A361D1E72857000825300008F8B5074636
:10310000FFF7ACFF1E4B1E68B36913B93046FFF7DB
:10311000BDFF4836D6E90134013B03D533680BB314
:103120003668F7E7B4F90C50D5B9164B04F15800DE
:10313000E360656600F047F8FFF796FF082229462E
:10314000C4E90155C4E904552560A56104F15C009A
:10315000FDF7BEFCC4E90D55C4E912552046F8BD83
:103160006834D9E704213846FFF762FF044630602F
:103170000028D5D1FFF778FF0C233B60EEE700BFB6
:10318000285700080100FFFF2DE9F843064688464E
:10319000002700F14804D4E90195B9F1010905D5EA
:1031A0002468002CF7D13846BDE8F883AB89012BA1
:1031B00007D9B5F90E30013303D029463046C04750
:1031C00007436835E9E770477047704770B50E46AA
:1031D000B1F90E10144600291D4696B008DA0022F7
:1031E000B6F90C302A601A0610D44FF480630EE052
:1031F0006A4600F0FBF80028F1DB019A02F4704205
:10320000A2F500535A425A412A60EEE740230020BB
:10321000236016B070BD00008B8973B59D0706460C
:103220000C4607D504F14703236023610123636142
:1032300002B070BD6A4601ABFFF7C8FF00990546B2
:103240003046FFF727FB48B9B4F90C309A05EFD4A4
:1032500023F0030343F00203A381E3E70D4BB362C2
:10326000A389206043F08003A381009B20616361F8
:10327000019B5BB13046B4F90E1000F0C9F828B1DB
:10328000A38923F0030343F00103A381A08905432D
:10329000A581CDE7253000081F2938B504460D4625
:1032A00004D9162303604FF0FF3038BD426C12B1D1
:1032B00052F821304BB9204600F030F82A4601463A
:1032C0002046BDE8384000F017B8012B0AD0591C41
:1032D00003D1162303600120E7E70024284642F8C3
:1032E000254098470020E0E7024B01461868FFF7A9
:1032F000D3BF00BF0000002038B50023064D0446B0
:10330000084611462B6000F0B0FA431C02D12B682E
:1033100003B1236038BD00BF0002002000F09EBA58
:1033200010B50C46B1F90E1000F094F80028ABBFB0
:10333000636DA3891B1823F48053ACBF6365A3811D
:1033400010BD2DE9F0411F468B890546DB050C4673
:10335000164605D502230022B1F90E1000F068F8D8
:10336000A389324623F48053A38128463B46B4F90F
:103370000E10BDE8F04100F017B810B50C46B1F9D9
:103380000E1000F055F8431CA38915BF606523F4A7
:10339000805343F48053A38118BFA38110BDB1F9BA
:1033A0000E1000F013B8000038B504460846114668
:1033B0000022054D2A601A4600F08EFA431C02D105
:1033C0002B6803B1236038BD0002002038B500230C
:1033D000054D044608462B6000F09AFA431C02D1C2
:1033E0002B6803B1236038BD0002002038B50023EC
:1033F000064D0446084611462B6000F094FA431C23
:1034000002D12B6803B1236038BD00BF0002002049
:1034100038B50023054D044608462B6000F092FAAB
:10342000431C02D12B6803B1236038BD0002002089
:1034300038B50446084611460022054D2A601A4652
:1034400000F08AFA431C02D12B6803B1236038BD17
:103450000002002038B50446084611460022054DFA
:103460002A601A4600F01BFA431C02D12B6803B1F4
:10347000236038BD0002002080B500AF01F03EFAA5
:1034800000F007F800F050F800F0D8F800F095FAD6
:10349000FEE780B590B000AF07F1180328220021A5
:1034A0001846FDF715FB3B1D00221A605A609A6012
:1034B000DA601A610123BB614FF48033FB610023A2
:1034C0003B620123BB6202237B634FF48033BB6307
:1034D0004FF4E013FB6307F11803184601F094FA68
:1034E0000346002B01D000F019F80F237B60022364
:1034F000BB600023FB604FF480633B6100237B6172
:103500003B1D0221184601F001FD0346002B01D0AE
:1035100000F004F800BF4037BD4680BD80B400AF66
:1035200072B600BFFEE7000080B588B000AF07F1BB
:10353000100300221A605A609A60DA603B4B9B6964
:103540003A4A43F010039361384B9B6903F0100330
:10355000FB60FB68354B9B69344A43F02003936161
:10356000324B9B6903F02003BB60BB682F4B9B6908
:103570002E4A43F0040393612C4B9B6903F0040330
:103580007B607B68294B9B69284A43F00803936161
:10359000264B9B6903F008033B603B68012248F21D
:1035A0001001234801F092FF012242F2024121481A
:1035B00001F08CFF4FF460433B6100237B610123EA
:1035C000BB6107F1100319461B4801F0FBFD48F2EF
:1035D00010033B6101237B610023BB610323FB617B
:1035E00007F110031946124801F0ECFD42F20243C4
:1035F0003B6101237B610023BB610223FB6107F177
:10360000100319460B4801F0DDFD4DF678233B61B0
:1036100000237B610123BB6107F1100319460548B4
:1036200001F0D0FD00BF2037BD4680BD0010024034
:1036300000080140000C01400010014080B500AFBF
:10364000174B184A1A60164B4FF482725A60144B8B
:1036500000229A60124B0022DA60114B00221A619C
:103660000F4B00225A610E4B4FF400729A610C4BC3
:103670001022DA610A4B00221A62094B00225A62B8
:10368000074B00229A62064B0A22DA62044800F0D5
:103690004EFE0346002B01D0FFF740FF00BF80BD68
:1036A000080200200030014080B588B000AF78608B
:1036B00007F1100300221A605A609A60DA607B6892
:1036C0001B681B4A93422FD11A4B9B69194A43F43A
:1036D00080539361174B9B6903F48053FB60FB6835
:1036E000144B9B69134A43F004039361114B9B698C
:1036F00003F00403BB60BB68A0233B6102237B6132
:103700000323FB6107F1100319460B4801F05AFD32
:1037100040233B6100237B610123BB6107F1100360
:103720001946054801F04EFD00BF2037BD4680BD5B
:1037300000300140001002400008014080B400AF9A
:10374000FEE780B400AFFEE780B400AFFEE780B4D0
:1037500000AFFEE780B400AFFEE780B400AF00BF6B
:10376000BD4680BC704780B400AF00BFBD4680BC82
:10377000704780B400AF00BFBD4680BC704780B5C5
:1037800000AF01F001F900BF80BD000080B485B03A
:1037900000AF154B9B69144A43F001039361124B30
:1037A0009B6903F00103BB60BB680F4BDB690E4AEA
:1037B00043F08053D3610C4BDB6903F080537B6093
:1037C0007B680A4B5B68FB60FB6823F0E063FB608F
:1037D000FB6843F00073FB60044AFB68536000BF62
:1037E0001437BD4680BC7047001002400000014005
:1037F00080B586B000AF7860144A154BD31A7B6150
:103800007B693B61134B1B68002B02D1114B124AA1
:103810001A60104B1A687B6813443A699A4207D2BF
:1038200001F06AFF03460C221A604FF0FF3309E0F3
:10383000084B1B68FB60074B1A687B681344054AFA
:103840001360FB6818461837BD4680BD0050002045
:1038500000040000600200205003002080B400AF8C
:1038600001231846BD4680BC704780B582B000AFCA
:103870007860396001F040FF034616221A604FF06D
:10388000FF3318460837BD4680BD80B582B000AF13
:1038900078604FF0FF317868FFF7E7FFFEE780B50B
:1038A00086B000AFF860B9607A6000237B610AE0FF
:1038B000AFF300800146BB685A1CBA60CAB21A70E6
:1038C0007B6901337B617A697B689A42F0DB7B68B4
:1038D00018461837BD4680BD80B586B000AFF86089
:1038E000B9607A6000237B6109E0BB685A1CBA604A
:1038F0001B781846AFF300807B6901337B617A69DE
:103900007B689A42F1DB7B6818461837BD4680BD5C
:1039100080B483B000AF78604FF0FF3318460C37A7
:10392000BD4680BC704780B483B000AF786039601A
:103930003B684FF400525A60002318460C37BD46CE
:1039400080BC704780B483B000AF78600123184614
:103950000C37BD4680BC704780B485B000AFF860BE
:10396000B9607A60002318461437BD4680BC7047A2
:1039700000F0D7FC0B480C490C4A002302E0D45855
:10398000C4500433C4188C42F9D3094A094C0023AB
:1039900001E013600432A242FBD3FDF775F8FFF794
:1039A0006BFD704700000020DC010020805B0008F8
:1039B000DC0100204C030020FEE780B500AF00F0E2
:1039C00067F900F031FA00F075FA00F089FC642024
:1039D00000F0F6FF00BF80BD80B489B000AF786012
:1039E0000B46FB70FB78002B54D07B682C4A93422B
:1039F0000CD12C4B9B692B4A43F004039361294B58
:103A00009B6903F00403FB61FB6944E07B68264A81
:103A100093420CD1234B9B69224A43F008039361E4
:103A2000204B9B6903F00803BB61BB6933E07B68F3
:103A30001E4A93420CD11B4B9B691A4A43F0100358
:103A40009361184B9B6903F010037B617B6922E053
:103A50007B68174A93420CD1124B9B69114A43F081
:103A6000200393610F4B9B6903F020033B613B698B
:103A700011E07B680F4A93420DD10A4B9B69094ABA
:103A800043F040039361074B9B6903F04003FB60E5
:103A9000FB6800E000BF2437BD4680BC704700BF14
:103AA0000008014000100240000C014000100140DD
:103AB000001401400018014080B586B000AF786066
:103AC0000B467B8013467B7007F1080300221A60C7
:103AD0005A609A60DA6001217868FFF77DFF7B8881
:103AE000BB600123FB6000233B617B787B6107F1B6
:103AF00008031946786801F065FB00BF1837BD461A
:103B000080BD80B588B000AFF8600B467A607B81DD
:103B100007F1100300221A605A609A60DA600121EE
:103B2000F868FFF759FF7B893B617B687B617B68A5
:103B3000002B01D10123BB6107F110031946F8687E
:103B400001F040FB00BF2037BD4680BD80B584B08A
:103B500000AF0346FB71FA7913465B0013449B00E8
:103B60000C4A1344FB60FB681A7AFB689B799A4203
:103B70000CBF01230023DBB2FB72FB681868FB68F3
:103B80009B88FA7A194601F0A1FC00BF1037BD46A8
:103B900080BD00BF6402002080B582B000AF034644
:103BA0000A46FB711346BB71FB79012B3FD8BB79E9
:103BB000022B2DD1FA79204913465B0013449B0058
:103BC0000B441868FA791C4913465B0013449B00A8
:103BD0000B4404331B88194601F090FCFA7916490E
:103BE00013465B0013449B000B4408331B78012BE6
:103BF00014BF01230023DBB2FA7918460E4913469D
:103C00005B0013449B000B44083302461A700FE01C
:103C1000FA79094913465B0013449B000B440833AF
:103C2000BA791A70FB791846FFF790FF00E000BFE1
:103C30000837BD4680BD00BF6402002080B582B059
:103C400000AF78600B46FB70FB78012B19D8FA782F
:103C50000E4913465B0013449B000B447A6892E8BC
:103C6000030083E803007B6818687B689B88022256
:103C70001946FFF721FFFB7800211846FFF78CFF5C
:103C800000E000BF0837BD4680BD00BF64020020D1
:103C900080B582B000AF0D4B3B600223BB80012397
:103CA000BB713B4600211846FFF7C8FF074B3B603E
:103CB0004FF40053BB800123BB713B4601211846E2
:103CC000FFF7BCFF00BF0837BD4680BD000C0140B8
:103CD00080B584B000AF0346FB71FA7913465B00F0
:103CE00013449B00114A1344BB60BB681B7A012B31
:103CF00008D1BB689B79012B0CBF01230023DBB2E9
:103D0000FB7307E0BB689B79012B14BF01230023E1
:103D1000DBB2FB73BB681868BB689B88FA7B1946EB
:103D200001F0D4FB00BF1037BD4680BD7C020020EF
:103D300080B582B000AF03460A46FB711346BB71E3
:103D4000FB79002B3FD1BB79022B2DD1FA79204989
:103D500013465B0013449B000B441868FA791C4916
:103D600013465B0013449B000B4404331B88194625
:103D700001F0C4FBFA79164913465B0013449B001B
:103D80000B4408331B78012B14BF01230023DBB243
:103D9000FA7918460E4913465B0013449B000B4406
:103DA000083302461A700FE0FA79094913465B009E
:103DB00013449B000B440833BA791A70FB791846F8
:103DC000FFF786FF00E000BF0837BD4680BD00BF9B
:103DD0007C02002080B582B000AF78600B46FB709B
:103DE000FB78002B19D1FA780E4913465B00134477
:103DF0009B000B447A6892E8030083E803007B6829
:103E000018687B689B8802221946FFF755FEFB78ED
:103E100000211846FFF78CFF00E000BF0837BD46C1
:103E200080BD00BF7C02002080B582B000AF084B8F
:103E30003B604FF48063BB800023BB713B46002195
:103E40001846FFF7C7FF00BF0837BD4680BD00BF5B
:103E5000000C014080B582B000AF78600B46FB706B
:103E6000FB780B2B1FD8FB78114A1B0113447A688F
:103E700092E8030083E803007B6818687B689B88EE
:103E800000221946FFF73DFEFB78094A1B01134447
:103E9000083300221A70FB78054A1B0113440C33C7
:103EA00000221A6000E000BF0837BD4680BD00BF99
:103EB0008802002080B582B000AF544B3B604FF4C5
:103EC0008043BB800023BB710023FB713B46002174
:103ED0001846FFF7BFFF4D4B3B604FF40043BB80DC
:103EE0000023BB710023FB713B4601211846FFF7FD
:103EF000B1FF464B3B600823BB800023BB7100230E
:103F0000FB713B4602211846FFF7A4FF3F4B3B6085
:103F10002023BB800023BB710023FB713B460321A0
:103F20001846FFF797FF394B3B604023BB800023C7
:103F3000BB710023FB713B4604211846FFF78AFF43
:103F4000324B3B601023BB800023BB710023FB710D
:103F50003B4605211846FFF77DFF2D4B3B604FF494
:103F60000053BB800023BB710023FB713B4606213D
:103F70001846FFF76FFF254B3B604FF40063BB8093
:103F80000023BB710023FB713B4607211846FFF756
:103F900061FF1F4B3B604FF48043BB800023BB712C
:103FA0000023FB713B4608211846FFF753FF184BCF
:103FB0003B604FF40043BB800023BB710023FB71C7
:103FC0003B4609211846FFF745FF104B3B604FF475
:103FD0008053BB800023BB710023FB713B460A2149
:103FE0001846FFF737FF094B3B604FF40073BB8067
:103FF0000023BB710023FB713B460B211846FFF7E2
:1040000029FF00BF0837BD4680BD00BF000C01403E
:104010000010014080B586B002AF0346FB7100235B
:10402000FB7307F10F02F91D0A23009301230648D1
:1040300000F001FA0346002B01D0FF2300E0FB7BD8
:1040400018461037BD4680BD0802002080B584B0F8
:1040500000AF03460A46FB711346BB7100221021D4
:104060000B4801F033FAFB791846FFF7D3FF0346FC
:10407000FB73BB791846FFF7CDFF012210210448DE
:1040800001F024FAFB7B18461037BD4680BD00BF07
:104090000008014090B585B000AF03463960FB7160
:1040A0001346BB7100221021124801F00FFAFB7970
:1040B0001846FFF7AFFF0346BB730023FB730AE00C
:1040C000FB7B3A68D418FF20FFF7A4FF0346237058
:1040D000FB7B0133FB73FA7BBB799A42F0D301225D
:1040E0001021044801F0F2F9BB7B18461437BD4695
:1040F00090BD00BF0008014080B584B000AF03460A
:104100003960FB711346BB7100221021114801F088
:10411000DDF9FB791846FFF77DFF0346BB730023EB
:10412000FB7309E03B685A1C3A601B781846FFF79E
:1041300071FFFB7B0133FB73FA7BBB799A42F1D3AE
:1041400001221021034801F0C1F9BB7B184610374A
:10415000BD4680BD0008014080B584B000AF184A5C
:1041600007F1080392E8030018600433197007F19F
:104170000803052219463020FFF7BEFF3B46052203
:1041800019461020FFF786FF0023FB7310E0FB7B2E
:1041900007F11002134413F8103CA52B05D00121A0
:1041A0000020FFF7F9FC012306E0FB7B0133FB73E2
:1041B000FB7B042BEBD9002318461037BD4680BD8E
:1041C0002057000880B582B000AF03460A46FB7155
:1041D0001346BB7100224FF400413E4801F076F9CE
:1041E00005223D492A20FFF787FF05223B49302061
:1041F000FFF782FF01212120FFF728FF0121222064
:10420000FFF724FF1A212420FFF720FFBB7919466E
:104210002520FFF71BFF0F212620FFF717FFFB7953
:10422000012B08D120213120FFF710FF0F21202082
:10423000FFF70CFF43E0FB79022B08D1202131204E
:10424000FFF704FF0E212020FFF700FF37E0FB7986
:10425000032B1AD1FF21E120FFF7F8FEFF21E22016
:10426000FFF7F4FE0F212020FFF7F0FE5020FFF7AC
:10427000D1FE7320FFF7CEFE01213C20FFF7E6FEC2
:1042800006213D20FFF7E2FE19E00E212020FFF776
:10429000DDFEFF21E120FFF7D9FEFF21E220FFF73D
:1042A000D5FE5020FFF7B6FE7320FFF7B3FE0121C5
:1042B0003C20FFF7CBFE06213D20FFF7C7FE012281
:1042C0004FF40041034801F001F900BF0837BD4633
:1042D00080BD00BF000801404C5B0008445B000843
:1042E00080B582B000AF0023FB710123BB71282190
:1042F0000420FFF767FF052000F062FBFFF72CFFAB
:104300000346BB71FB790133FB71FB79642B03D846
:10431000BB79012BEBD000E000BF00BF0837BD46E2
:1043200080BD80B400AF00BFBD4680BC704780B583
:1043300082B000AF78607B68002B01D1012376E06A
:104340007B685B6A002B08D17B685B68B3F5827F72
:1043500009D07B680022DA6105E07B6800221A61DF
:104360007B6800225A617B6800229A627B6893F81E
:104370005130DBB2002B06D17B68002283F850203D
:104380007868FFF791F97B68022283F851207B68F7
:104390001B681A687B681B6822F040021A607B6801
:1043A0005B6803F482727B689B6803F404431A43DE
:1043B0007B68DB6803F400631A437B681B6903F0C6
:1043C00002031A437B685B6903F001031A437B68AD
:1043D0009B6903F400731A437B68DB6903F03803BD
:1043E0001A437B681B6A03F0800342EA03017B687F
:1043F0009B6A03F400527B681B680A431A607B685F
:104400009B691A0C7B681B6802F004025A607B6887
:104410001B68DA697B681B6822F40062DA617B68DA
:1044200000225A657B68012283F851200023184638
:104430000837BD4680BD80B58AB000AFF860B9606E
:104440007A607B8001237B6200F0B0FA3862FB68FF
:1044500093F85130FB77FB685B68BB617B88FB821C
:10446000FB7F012B0CD0BB69B3F5827F06D1FB68C3
:104470009B68002B02D1FB7F042B01D002237FE13C
:10448000BB68002B05D07B68002B02D07B88002BFB
:1044900001D1012374E1FB6893F85030012B01D165
:1044A00002236DE1FB68012283F85020FB6893F83A
:1044B0005130DBB2042B03D0FB68052283F8512076
:1044C000FB6800225A65FB687A689A63FB687A8801
:1044D000DA87FB687A889A87FB68BA681A63FB6890
:1044E0007A88DA86FB687A889A86FB6800221A64E2
:1044F000FB6800225A64FB681B681B6803F04003DA
:10450000402B07D0FB681B681A68FB681B6842F0E9
:1045100040021A60FB68DB68B3F5006F7ED1FB6870
:104520005B68002B02D0FB8A012B6CD1FB681B6BF4
:104530001A88FB681B68DA60FB681B6B9A1CFB68B7
:104540001A63FB68DB8E9BB2013B9AB2FB68DA868A
:1045500059E0FB681B689B6803F00203022B1BD128
:10456000FB68DB8E9BB2002B16D07B6A012B13D12C
:10457000FB681B6B1A88FB681B68DA60FB681B6BA7
:104580009A1CFB681A63FB68DB8E9BB2013B9AB2F4
:10459000FB68DA8600237B62FB681B689B6803F07C
:1045A0000103012B19D1FB68DB8F9BB2002B14D0C8
:1045B000FB681B68DA68FB689B6B92B21A80FB6829
:1045C0009B6B9A1CFB689A63FB68DB8F9BB2013B79
:1045D0009AB2FB68DA8701237B6200F0E7F90246B2
:1045E0003B6AD31A3A6B9A420DD83B6BB3F1FF3F4B
:1045F00009D0FB68012283F85120FB68002283F870
:1046000050200323BCE0FB68DB8E9BB2002BA0D1C3
:10461000FB68DB8F9BB2002B9BD182E0FB685B6861
:10462000002B02D0FB8A012B71D1FB681A6BFB684F
:104630001B680C3312781A70FB681B6B5A1CFB68E2
:104640001A63FB68DB8E9BB2013B9AB2FB68DA8689
:104650005DE0FB681B689B6803F00203022B1CD122
:10466000FB68DB8E9BB2002B17D07B6A012B14D129
:10467000FB681A6BFB681B680C3312781A70FB68B6
:104680001B6B5A1CFB681A63FB68DB8E9BB2013BF9
:104690009AB2FB68DA8600237B62FB681B689B6822
:1046A00003F00103012B19D1FB68DB8F9BB2002BB8
:1046B00014D0FB681B68DA68FB689B6BD2B21A7077
:1046C000FB689B6B5A1CFB689A63FB68DB8F9BB291
:1046D000013B9AB2FB68DA8701237B6200F066F93E
:1046E00002463B6AD31A3A6B9A4203D83B6BB3F14A
:1046F000FF3F02D13B6B002B09D1FB68012283F8FD
:104700005120FB68002283F85020032338E0FB6827
:10471000DB8E9BB2002B9CD1FB68DB8F9BB2002B06
:1047200097D13A6A396BF86800F0B6F80346002B67
:1047300008D0FB6820225A65FB68002283F85020CD
:1047400001231DE0FB689B68002B0AD100233B611D
:10475000FB681B68DB683B61FB681B689B683B610F
:104760003B69FB68012283F85120FB68002283F833
:104770005020FB685B6D002B01D0012300E000237B
:1047800018462837BD4680BD80B588B000AFF860B8
:10479000B9603B601346FB7100F008F90246BB6A42
:1047A0009B1A3A681344FB6100F000F9B861394B79
:1047B0001B685B011B0DFA6902FB03F37B6154E08C
:1047C0003B68B3F1FF3F50D000F0F0F80246BB6900
:1047D000D31AFA699A4202D9FB69002B3DD1FB68D2
:1047E0001B685A68FB681B6822F0E0025A60FB688D
:1047F0005B68B3F5827F11D1FB689B68B3F5004F0E
:1048000004D0FB689B68B3F5806F07D1FB681B6819
:104810001A68FB681B6822F040021A60FB689B6AFA
:10482000B3F5005F0FD1FB681B681A68FB681B6853
:1048300022F400521A60FB681B681A68FB681B6848
:1048400042F400521A60FB68012283F85120FB6891
:10485000002283F85020032317E07B69002B01D14D
:104860000023FB617B69013B7B61FB681B689A68E5
:10487000BB681340BA689A420CBF01230023DBB225
:104880001A46FB799A429BD1002318462037BD4631
:1048900080BD00BFD001002080B586B002AFF860B7
:1048A000B9607A607B680093BB6801220221F868D6
:1048B000FFF76AFF0346002B07D0FB685B6D43F0F0
:1048C0002002FB685A65032313E07B680093BB68F2
:1048D00000228021F868FFF757FF0346002B07D01E
:1048E000FB685B6D43F02002FB685A65032300E020
:1048F000002318461037BD4680BD000080B500AFCC
:10490000084B1B68074A43F010031360032000F0B4
:10491000BFFE0F2000F008F8FEF738FF002318460E
:1049200080BD00BF0020024080B582B000AF78603B
:10493000124B1A68124B1B7819464FF47A73B3FB6B
:10494000F1F3B2FBF3F3184600F0C9FE0346002B67
:1049500001D001230EE07B680F2B0AD80022796872
:104960004FF0FF3000F09FFE064A7B681360002383
:1049700000E0012318460837BD4680BDD001002065
:10498000D8010020D401002080B400AF054B1B7873
:104990001A46054B1B681344034A136000BFBD460B
:1049A00080BC7047D80100204803002080B400AFCD
:1049B000024B1B681846BD4680BC70474803002068
:1049C00080B584B000AF7860FFF7F0FFB8607B6817
:1049D000FB60FB68B3F1FF3F05D00A4B1B781A461A
:1049E000FB681344FB6000BFFFF7E0FF0246BB68B3
:1049F000D31AFA689A42F7D800BF00BF1037BD46F5
:104A000080BD00BFD801002080B586B000AF7860BF
:104A10007B68002B01D1012372E27B681B6803F0E5
:104A20000103002B00F08780924B5B6803F00C03BE
:104A3000042B0CD08F4B5B6803F00C03082B12D1B6
:104A40008C4B5B6803F48033B3F5803F0BD1894B0B
:104A50001B6803F40033002B6CD07B685B68002B71
:104A600068D101234CE27B685B68B3F5803F06D1D7
:104A7000804B1B687F4A43F4803313602EE07B68D1
:104A80005B68002B0CD17B4B1B687A4A23F4803384
:104A90001360784B1B68774A23F4802313601DE072
:104AA0007B685B68B3F5A02F0CD1724B1B68714A11
:104AB00043F4802313606F4B1B686E4A43F48033CA
:104AC00013600BE06B4B1B686A4A23F4803313605E
:104AD000684B1B68674A23F4802313607B685B681C
:104AE000002B13D0FFF762FF386108E0FFF75EFF8D
:104AF00002463B69D31A642B01D9032300E25D4BC4
:104B00001B6803F40033002BF0D014E0FFF74EFFD6
:104B1000386108E0FFF74AFF02463B69D31A642B6D
:104B200001D90323ECE1534B1B6803F40033002B42
:104B3000F0D100E000BF7B681B6803F00203002B8C
:104B400063D04C4B5B6803F00C03002B0BD0494B3C
:104B50005B6803F00C03082B1CD1464B5B6803F425
:104B60008033002B16D1434B1B6803F00203002B4C
:104B700005D07B681B69012B01D00123C0E13D4BAF
:104B80001B6823F0F8027B685B69DB00394913433B
:104B90000B603AE07B681B69002B20D0364B01226A
:104BA0001A60FFF703FF386108E0FFF7FFFE0246D7
:104BB0003B69D31A022B01D90323A1E12D4B1B68BA
:104BC00003F00203002BF0D02A4B1B6823F0F802FD
:104BD0007B685B69DB00274913430B6015E0264BBC
:104BE00000221A60FFF7E2FE386108E0FFF7DEFE00
:104BF00002463B69D31A022B01D9032380E11D4BE6
:104C00001B6803F00203002BF0D17B681B6803F0E4
:104C10000803002B3AD07B689B69002B19D0174BF7
:104C200001221A60FFF7C2FE386108E0FFF7BEFEFE
:104C300002463B69D31A022B01D9032360E10D4BD5
:104C40005B6A03F00203002BF0D0012000F09CFA15
:104C50001CE00A4B00221A60FFF7A8FE38610FE043
:104C6000FFF7A4FE02463B69D31A022B08D903239F
:104C700046E100BF00100240000042428004424270
:104C8000924B5B6A03F00203002BE9D17B681B683F
:104C900003F00403002B00F0A6800023FB758B4B70
:104CA000DB6903F08053002B0DD1884BDB69874A09
:104CB00043F08053D361854BDB6903F08053BB60C5
:104CC000BB680123FB75824B1B6803F48073002BC8
:104CD00018D17F4B1B687E4A43F480731360FFF743
:104CE00065FE386108E0FFF761FE02463B69D31AB2
:104CF000642B01D9032303E1754B1B6803F4807314
:104D0000002BF0D07B68DB68012B06D16F4B1B6A50
:104D10006E4A43F0010313622DE07B68DB68002BD1
:104D20000CD16A4B1B6A694A23F001031362674B7B
:104D30001B6A664A23F0040313621CE07B68DB688D
:104D4000052B0CD1614B1B6A604A43F004031362CC
:104D50005E4B1B6A5D4A43F0010313620BE05B4B41
:104D60001B6A5A4A23F001031362584B1B6A574AC5
:104D700023F0040313627B68DB68002B15D0FFF778
:104D800015FE38610AE0FFF711FE02463B69D31AAF
:104D900041F28832934201D90323B1E04B4B1B6AA5
:104DA00003F00203002BEED014E0FFF7FFFD3861A3
:104DB0000AE0FFF7FBFD02463B69D31A41F2883255
:104DC000934201D903239BE0404B1B6A03F002038B
:104DD000002BEED1FB7D012B05D13C4BDB693B4A1F
:104DE00023F08053D3617B68DB69002B00F0878060
:104DF000364B5B6803F00C03082B61D07B68DB69E2
:104E0000022B46D1334B00221A60FFF7CFFD3861E9
:104E100008E0FFF7CBFD02463B69D31A022B01D90C
:104E200003236DE0294B1B6803F00073002BF0D1C6
:104E30007B681B6AB3F5803F08D1244B5B6823F481
:104E400000327B689B68214913434B601F4B5B68B2
:104E500023F474127B68196A7B685B6A0B431B49F5
:104E600013434B601B4B01221A60FFF79FFD386113
:104E700008E0FFF79BFD02463B69D31A022B01D9DC
:104E800003233DE0114B1B6803F00073002BF0D0AF
:104E900035E0104B00221A60FFF788FD386108E00A
:104EA000FFF784FD02463B69D31A022B01D9032385
:104EB00026E0064B1B6803F00073002BF0D11EE0C8
:104EC0007B68DB69012B07D1012319E00010024048
:104ED00000700040600042420B4B5B68FB60FB6867
:104EE00003F480327B681B6A9A4206D1FB6803F4A4
:104EF00070127B685B6A9A4201D0012300E00023B4
:104F000018461837BD4680BD0010024080B584B0F9
:104F100000AF786039607B68002B01D10123D0E0BD
:104F20006A4B1B6803F007033A689A4210D9674B33
:104F30001B6823F0070265493B6813430B60634B12
:104F40001B6803F007033A689A4201D00123B8E0D6
:104F50007B681B6803F00203002B20D07B681B6872
:104F600003F00403002B05D0594B5B68584A43F407
:104F7000E06353607B681B6803F00803002B05D0D7
:104F8000534B5B68524A43F460535360504B5B6829
:104F900023F0F0027B689B684D4913434B607B68AC
:104FA0001B6803F00103002B40D07B685B68012B7A
:104FB00007D1474B1B6803F40033002B15D10123A5
:104FC0007FE07B685B68022B07D1414B1B6803F0D5
:104FD0000073002B09D1012373E03D4B1B6803F0E4
:104FE0000203002B01D101236BE0394B5B6823F0F6
:104FF00003027B685B68364913434B60FFF7D6FCBE
:10500000F8600AE0FFF7D2FC0246FB68D31A41F2CF
:105010008832934201D9032353E02D4B5B6803F0A0
:105020000C027B685B689B009A42EBD1274B1B68A4
:1050300003F007033A689A4210D2244B1B6823F00E
:10504000070222493B6813430B60204B1B6803F0A7
:1050500007033A689A4201D0012332E07B681B685B
:1050600003F00403002B08D0194B5B6823F4E062C3
:105070007B68DB68164913434B607B681B6803F051
:105080000803002B09D0124B5B6823F460527B6845
:105090001B69DB000E4913434B6000F021F8024608
:1050A0000B4B5B681B0903F00F030A49CB5C22FA28
:1050B00003F3094A1360094B1B681846FFF734FCD9
:1050C000002318461037BD4680BD00BF00200240B7
:1050D00000100240545B0008D0010020D4010020E1
:1050E00080B487B000AF0023FB600023BB600023C7
:1050F0007B6100237B6000233B611E4B5B68FB6090
:10510000FB6803F00C03042B02D0082B03D027E02C
:10511000194B3B6127E0FB689B0C03F00F03174A18
:10512000D35C7B60FB6803F48033002B10D0114B01
:105130005B685B0C03F00103114AD35CBB607B68C6
:105140000D4A03FB02F2BB68B2FBF3F37B6104E0A0
:105150007B680C4A02FB03F37B617B693B6102E0E5
:10516000054B3B6100BF3B6918461C37BD4680BC00
:10517000704700BF0010024000127A00645B000814
:10518000745B000800093D0080B485B000AF786012
:105190000A4B1B680A4AA2FB03235B0A7A6802FBDC
:1051A00003F3FB6000BFFB685A1EFA60002BF9D1C5
:1051B00000BF00BF1437BD4680BC7047D00100203F
:1051C000D34D621080B48BB000AF7860396000239B
:1051D0007B6200233B6269E101227B6A02FA03F3EE
:1051E000FB613B681B68FA691340BB61BA69FB69E4
:1051F0009A4240F058813B685B689A4A93425ED07D
:10520000984A934275D8984A934258D0964A934206
:105210006FD8964A934252D0944A934269D8944A9E
:1052200093424CD0924A934263D8924A934246D0DA
:10523000904A93425DD8122B2AD8122B59D801A23A
:1052400052F823F0BF52000899520008AB520008F0
:10525000ED520008F3520008F3520008F352000820
:10526000F3520008F3520008F3520008F35200080A
:10527000F3520008F3520008F3520008F3520008FA
:10528000F3520008F3520008A1520008B55200087A
:10529000794A934213D02CE03B68DB683B6229E0FB
:1052A0003B68DB6804333B6224E03B68DB6808331F
:1052B0003B621FE03B68DB680C333B621AE03B68F3
:1052C0009B68002B02D104233B6213E03B689B6880
:1052D000012B05D108233B627B68FA691A6109E05A
:1052E00008233B627B68FA695A6103E000233B6252
:1052F00000E000BFBB69FF2B01D87B6801E07B6841
:1053000004337B61BB69FF2B02D87B6A9B0002E000
:105310007B6A083B9B003B617B691A680F213B69F4
:1053200001FA03F3DB431A40396A3B6901FA03F3DC
:105330001A437B691A603B685B6803F08053002B5B
:1053400000F0B1804D4B9B694C4A43F001039361DF
:105350004A4B9B6903F00103BB60BB68484A7B6A08
:105360009B08023352F82330FB607B6A03F003038F
:105370009B000F2202FA03F3DB43FA681340FB6041
:105380007B68404A934213D07B683F4A93420DD0DA
:105390007B683E4A934207D07B683D4A934201D1E5
:1053A000032306E0042304E0022302E0012300E0DB
:1053B00000237A6A02F0030292009340FA681343D2
:1053C000FB602F497B6A9B080233FA6841F823206F
:1053D0003B685B6803F48013002B06D02D4B9A6862
:1053E0002C49BB6913438B6006E02A4B9A68BB6962
:1053F000DB43284913408B603B685B6803F4001370
:10540000002B06D0234BDA682249BB691343CB60DB
:1054100006E0204BDA68BB69DB431E491340CB60D2
:105420003B685B6803F40033002B06D0194B5A68C5
:105430001849BB6913434B6006E0164B5A68BB69B9
:10544000DB43144913404B603B685B6803F48033D3
:10545000002B21D00F4B1A680E49BB6913430B6018
:1054600021E000BF000032100000311000002210C7
:105470000000211000001210000011100010024066
:105480000000014000080140000C014000100140F4
:1054900000140140000401400B4B1A68BB69DB4358
:1054A000094913400B607B6A01337B623B681A68D1
:1054B0007B6A22FA03F3002B7FF48EAE00BF00BF9D
:1054C0002C37BD4680BC70470004014080B483B0D7
:1054D00000AF78600B467B8013467B707B78002B97
:1054E00003D07A887B681A6103E07B881A047B68A2
:1054F0001A6100BF0C37BD4680BC704780B485B0D0
:1055000000AF78600B467B807B68DB68FB607A8845
:10551000FB6813401A04FB68D9437B880B401A438D
:105520007B681A6100BF1437BD4680BC704700001D
:1055300080B485B000AF78607B6803F00703FB6040
:105540000C4BDB68BB60BA684FF6FF031340BB60CF
:10555000FB681A02BB68134343F0BF6343F4003394
:10556000BB60044ABB68D36000BF1437BD4680BC33
:10557000704700BF00ED00E080B400AF044BDB6873
:105580001B0A03F007031846BD4680BC704700BFE6
:1055900000ED00E080B483B000AF03463960FB71DA
:1055A00097F90730002B0ADB3B68DAB20C4997F910
:1055B00007301201D2B20B4483F800230AE03B68A3
:1055C000DAB20849FB7903F00F03043B1201D2B2AF
:1055D0000B441A7600BF0C37BD4680BC704700BF35
:1055E00000E100E000ED00E080B489B000AFF860B9
:1055F000B9607A60FB6803F00703FB61FB69C3F1E4
:105600000703042B28BF0423BB61FB690433062B6B
:1056100002D9FB69033B00E000237B614FF0FF32BE
:10562000BB6902FA03F3DA43BB681A407B699A400C
:105630004FF0FF317B6901FA03F3D9437B680B40DC
:10564000134318462437BD4680BC704780B582B0EE
:1056500000AF78607B68013BB3F1807F01D3012309
:105660000FE00A4A7B68013B53600F214FF0FF3087
:10567000FFF790FF054B00229A60044B07221A6047
:10568000002318460837BD4680BD00BF10E000E08B
:1056900080B582B000AF78607868FFF749FF00BF3F
:1056A0000837BD4680BD80B586B000AF0346B960FF
:1056B0007A60FB7300237B61FFF75EFF78617A6895
:1056C000B9687869FFF790FF024697F90F301146E5
:1056D0001846FFF75FFF00BF1837BD4680BD80B595
:1056E00082B000AF78607868FFF7B0FF03461846D5
:1056F0000837BD4680BD0000014B1868704700BFE9
:1057000000000020F8B500BFF8BC08BC9E467047FA
:0C571000F8B500BFF8BC08BC9E4670470E
:10572000A5A5A5A5A500000004000020494E46003F
:10573000696E66004E414E006E616E003000303181
:1057400032333435363738394142434445460030E8
:105750003132333435363738396162636465660017
:10576000496E66696E697479004E614E0052454516
:105770004E54206D616C6C6F632073756363656557
:10578000646564002F6D6E742F776F726B73706138
:1057900063652F776F726B73706163652F47434347
:1057A0002D31302D706970656C696E652F6A656E7C
:1057B0006B696E732D4743432D31302D70697065D1
:1057C0006C696E652D34385F3230323031313234AD
:1057D0005F313630363138303634312F7372632FC3
:1057E0006E65776C69622F6E65776C69622F6C6984
:1057F00062632F7374646C69622F64746F612E63CB
:105800000042616C6C6F63207375636365656465EA
:1058100064002F6D6E742F776F726B7370616365A8
:105820002F776F726B73706163652F4743432D3120
:10583000302D706970656C696E652F6A656E6B6975
:105840006E732D4743432D31302D706970656C693F
:105850006E652D34385F32303230313132345F3161
:105860003630363138303634312F7372632F6E65EF
:10587000776C69622F6E65776C69622F6C69626301
:105880002F7374646C69622F6D707265632E630090
:105890000080E03779C34143176E05B5B5B893462C
:1058A000F5F93FE9034F384D321D30F94877825AF8
:1058B0003CBF737FDD4F1575000000000000F03F16
:1058C00000000000000024400000000000005940DB
:1058D0000000000000408F40000000000088C3402E
:1058E00000000000006AF8400000000080842E41A3
:1058F00000000000D01263410000000084D79741EF
:105900000000000065CDCD41000000205FA00242F4
:10591000000000E876483742000000A2941A6D4269
:10592000000040E59C30A2420000901EC4BCD6425C
:1059300000003426F56B0C430080E03779C3414307
:1059400000A0D8855734764300C84E676DC1AB437D
:10595000003D9160E458E143408CB5781DAF15449B
:1059600050EFE2D6E41A4B4492D54D06CFF0804476
:10597000F64AE1C7022DB544B49DD9794378EA448B
:1059800005000000190000007D0000002C20667555
:105990006E6374696F6E3A20006173736572746927
:1059A0006F6E2022257322206661696C65643A203F
:1059B00066696C6520222573222C206C696E652037
:1059C0002564257325730A004300504F534958003E
:1059D0002E00232D302B2000686C4C006566674537
:1059E0004647000020202020202020202028282892
:1059F0002828202020202020202020202020202097
:105A000020202020881010101010101010101010DE
:105A100010101010040404040404040404041010FE
:105A2000101010101041414141414101010101019B
:105A30000101010101010101010101010101011047
:105A40001010101010424242424242020202020270
:105A50000202020202020202020202020202021018
:105A600010101020000000000000000000000000E6
:105A70000000000000000000000000000000000026
:105A80000000000000000000000000000000000016
:105A90000000000000000000000000000000000006
:105AA00000000000000000000000000000000000F6
:105AB00000000000000000000000000000000000E6
:105AC00000000000000000000000000000000000D6
:105AD00000000000000000000000000000000000C6
